{
  "address": "0x685e646f4E2C7Dd15f9257cc87F8CF56d7c861bA",
  "abi": [
    {
      "inputs": [
        {
          "internalType": "address",
          "name": "timelock_",
          "type": "address"
        },
        {
          "internalType": "address",
          "name": "fate_",
          "type": "address"
        }
      ],
      "stateMutability": "nonpayable",
      "type": "constructor"
    },
    {
      "anonymous": false,
      "inputs": [
        {
          "indexed": false,
          "internalType": "uint256",
          "name": "id",
          "type": "uint256"
        }
      ],
      "name": "ProposalCanceled",
      "type": "event"
    },
    {
      "anonymous": false,
      "inputs": [
        {
          "indexed": false,
          "internalType": "uint256",
          "name": "id",
          "type": "uint256"
        },
        {
          "indexed": false,
          "internalType": "address",
          "name": "proposer",
          "type": "address"
        },
        {
          "indexed": false,
          "internalType": "address[]",
          "name": "targets",
          "type": "address[]"
        },
        {
          "indexed": false,
          "internalType": "uint256[]",
          "name": "values",
          "type": "uint256[]"
        },
        {
          "indexed": false,
          "internalType": "string[]",
          "name": "signatures",
          "type": "string[]"
        },
        {
          "indexed": false,
          "internalType": "bytes[]",
          "name": "calldatas",
          "type": "bytes[]"
        },
        {
          "indexed": false,
          "internalType": "uint256",
          "name": "startBlock",
          "type": "uint256"
        },
        {
          "indexed": false,
          "internalType": "uint256",
          "name": "endTimestamp",
          "type": "uint256"
        },
        {
          "indexed": false,
          "internalType": "string",
          "name": "description",
          "type": "string"
        }
      ],
      "name": "ProposalCreated",
      "type": "event"
    },
    {
      "anonymous": false,
      "inputs": [
        {
          "indexed": false,
          "internalType": "uint256",
          "name": "id",
          "type": "uint256"
        }
      ],
      "name": "ProposalExecuted",
      "type": "event"
    },
    {
      "anonymous": false,
      "inputs": [
        {
          "indexed": false,
          "internalType": "uint256",
          "name": "id",
          "type": "uint256"
        },
        {
          "indexed": false,
          "internalType": "uint256",
          "name": "eta",
          "type": "uint256"
        }
      ],
      "name": "ProposalQueued",
      "type": "event"
    },
    {
      "anonymous": false,
      "inputs": [
        {
          "indexed": false,
          "internalType": "address",
          "name": "voter",
          "type": "address"
        },
        {
          "indexed": false,
          "internalType": "uint256",
          "name": "proposalId",
          "type": "uint256"
        },
        {
          "indexed": false,
          "internalType": "bool",
          "name": "support",
          "type": "bool"
        },
        {
          "indexed": false,
          "internalType": "uint256",
          "name": "votes",
          "type": "uint256"
        }
      ],
      "name": "VoteCast",
      "type": "event"
    },
    {
      "inputs": [],
      "name": "BALLOT_TYPEHASH",
      "outputs": [
        {
          "internalType": "bytes32",
          "name": "",
          "type": "bytes32"
        }
      ],
      "stateMutability": "view",
      "type": "function"
    },
    {
      "inputs": [],
      "name": "DOMAIN_TYPEHASH",
      "outputs": [
        {
          "internalType": "bytes32",
          "name": "",
          "type": "bytes32"
        }
      ],
      "stateMutability": "view",
      "type": "function"
    },
    {
      "inputs": [],
      "name": "acceptAdmin",
      "outputs": [],
      "stateMutability": "nonpayable",
      "type": "function"
    },
    {
      "inputs": [],
      "name": "admin_initialized",
      "outputs": [
        {
          "internalType": "bool",
          "name": "",
          "type": "bool"
        }
      ],
      "stateMutability": "view",
      "type": "function"
    },
    {
      "inputs": [
        {
          "internalType": "uint256",
          "name": "proposalId",
          "type": "uint256"
        }
      ],
      "name": "cancel",
      "outputs": [],
      "stateMutability": "nonpayable",
      "type": "function"
    },
    {
      "inputs": [
        {
          "internalType": "uint256",
          "name": "proposalId",
          "type": "uint256"
        },
        {
          "internalType": "bool",
          "name": "support",
          "type": "bool"
        }
      ],
      "name": "castVote",
      "outputs": [],
      "stateMutability": "nonpayable",
      "type": "function"
    },
    {
      "inputs": [
        {
          "internalType": "uint256",
          "name": "proposalId",
          "type": "uint256"
        },
        {
          "internalType": "bool",
          "name": "support",
          "type": "bool"
        },
        {
          "internalType": "uint8",
          "name": "v",
          "type": "uint8"
        },
        {
          "internalType": "bytes32",
          "name": "r",
          "type": "bytes32"
        },
        {
          "internalType": "bytes32",
          "name": "s",
          "type": "bytes32"
        }
      ],
      "name": "castVoteBySig",
      "outputs": [],
      "stateMutability": "nonpayable",
      "type": "function"
    },
    {
      "inputs": [
        {
          "internalType": "uint256",
          "name": "proposalId",
          "type": "uint256"
        }
      ],
      "name": "execute",
      "outputs": [],
      "stateMutability": "payable",
      "type": "function"
    },
    {
      "inputs": [],
      "name": "fate",
      "outputs": [
        {
          "internalType": "contract IFate",
          "name": "",
          "type": "address"
        }
      ],
      "stateMutability": "view",
      "type": "function"
    },
    {
      "inputs": [
        {
          "internalType": "uint256",
          "name": "proposalId",
          "type": "uint256"
        }
      ],
      "name": "getActions",
      "outputs": [
        {
          "internalType": "address[]",
          "name": "targets",
          "type": "address[]"
        },
        {
          "internalType": "uint256[]",
          "name": "values",
          "type": "uint256[]"
        },
        {
          "internalType": "string[]",
          "name": "signatures",
          "type": "string[]"
        },
        {
          "internalType": "bytes[]",
          "name": "calldatas",
          "type": "bytes[]"
        }
      ],
      "stateMutability": "view",
      "type": "function"
    },
    {
      "inputs": [
        {
          "internalType": "address",
          "name": "account",
          "type": "address"
        },
        {
          "internalType": "uint256",
          "name": "blockNumber",
          "type": "uint256"
        }
      ],
      "name": "getPriorVotes",
      "outputs": [
        {
          "internalType": "uint96",
          "name": "",
          "type": "uint96"
        }
      ],
      "stateMutability": "view",
      "type": "function"
    },
    {
      "inputs": [
        {
          "internalType": "uint256",
          "name": "proposalId",
          "type": "uint256"
        },
        {
          "internalType": "address",
          "name": "voter",
          "type": "address"
        }
      ],
      "name": "getReceipt",
      "outputs": [
        {
          "components": [
            {
              "internalType": "bool",
              "name": "hasVoted",
              "type": "bool"
            },
            {
              "internalType": "bool",
              "name": "support",
              "type": "bool"
            },
            {
              "internalType": "uint96",
              "name": "votes",
              "type": "uint96"
            }
          ],
          "internalType": "struct GovernorAlpha.Receipt",
          "name": "",
          "type": "tuple"
        }
      ],
      "stateMutability": "view",
      "type": "function"
    },
    {
      "inputs": [
        {
          "internalType": "address",
          "name": "",
          "type": "address"
        }
      ],
      "name": "latestProposalIds",
      "outputs": [
        {
          "internalType": "uint256",
          "name": "",
          "type": "uint256"
        }
      ],
      "stateMutability": "view",
      "type": "function"
    },
    {
      "inputs": [],
      "name": "name",
      "outputs": [
        {
          "internalType": "string",
          "name": "",
          "type": "string"
        }
      ],
      "stateMutability": "view",
      "type": "function"
    },
    {
      "inputs": [],
      "name": "proposalCount",
      "outputs": [
        {
          "internalType": "uint256",
          "name": "",
          "type": "uint256"
        }
      ],
      "stateMutability": "view",
      "type": "function"
    },
    {
      "inputs": [],
      "name": "proposalMaxOperations",
      "outputs": [
        {
          "internalType": "uint256",
          "name": "",
          "type": "uint256"
        }
      ],
      "stateMutability": "pure",
      "type": "function"
    },
    {
      "inputs": [],
      "name": "proposalThreshold",
      "outputs": [
        {
          "internalType": "uint256",
          "name": "",
          "type": "uint256"
        }
      ],
      "stateMutability": "pure",
      "type": "function"
    },
    {
      "inputs": [
        {
          "internalType": "uint256",
          "name": "",
          "type": "uint256"
        }
      ],
      "name": "proposals",
      "outputs": [
        {
          "internalType": "uint256",
          "name": "id",
          "type": "uint256"
        },
        {
          "internalType": "address",
          "name": "proposer",
          "type": "address"
        },
        {
          "internalType": "uint256",
          "name": "eta",
          "type": "uint256"
        },
        {
          "internalType": "uint256",
          "name": "startBlock",
          "type": "uint256"
        },
        {
          "internalType": "uint256",
          "name": "endTimestamp",
          "type": "uint256"
        },
        {
          "internalType": "uint256",
          "name": "forVotes",
          "type": "uint256"
        },
        {
          "internalType": "uint256",
          "name": "againstVotes",
          "type": "uint256"
        },
        {
          "internalType": "bool",
          "name": "canceled",
          "type": "bool"
        },
        {
          "internalType": "bool",
          "name": "executed",
          "type": "bool"
        }
      ],
      "stateMutability": "view",
      "type": "function"
    },
    {
      "inputs": [
        {
          "internalType": "address[]",
          "name": "targets",
          "type": "address[]"
        },
        {
          "internalType": "uint256[]",
          "name": "values",
          "type": "uint256[]"
        },
        {
          "internalType": "string[]",
          "name": "signatures",
          "type": "string[]"
        },
        {
          "internalType": "bytes[]",
          "name": "calldatas",
          "type": "bytes[]"
        },
        {
          "internalType": "string",
          "name": "description",
          "type": "string"
        }
      ],
      "name": "propose",
      "outputs": [
        {
          "internalType": "uint256",
          "name": "",
          "type": "uint256"
        }
      ],
      "stateMutability": "nonpayable",
      "type": "function"
    },
    {
      "inputs": [
        {
          "internalType": "uint256",
          "name": "proposalId",
          "type": "uint256"
        }
      ],
      "name": "queue",
      "outputs": [],
      "stateMutability": "nonpayable",
      "type": "function"
    },
    {
      "inputs": [],
      "name": "quorumVotes",
      "outputs": [
        {
          "internalType": "uint256",
          "name": "",
          "type": "uint256"
        }
      ],
      "stateMutability": "pure",
      "type": "function"
    },
    {
      "inputs": [
        {
          "internalType": "uint256",
          "name": "proposalId",
          "type": "uint256"
        }
      ],
      "name": "state",
      "outputs": [
        {
          "internalType": "enum GovernorAlpha.ProposalState",
          "name": "",
          "type": "uint8"
        }
      ],
      "stateMutability": "view",
      "type": "function"
    },
    {
      "inputs": [],
      "name": "timelock",
      "outputs": [
        {
          "internalType": "contract TimelockInterface",
          "name": "",
          "type": "address"
        }
      ],
      "stateMutability": "view",
      "type": "function"
    },
    {
      "inputs": [],
      "name": "votingDelay",
      "outputs": [
        {
          "internalType": "uint256",
          "name": "",
          "type": "uint256"
        }
      ],
      "stateMutability": "pure",
      "type": "function"
    },
    {
      "inputs": [],
      "name": "votingPeriod",
      "outputs": [
        {
          "internalType": "uint256",
          "name": "",
          "type": "uint256"
        }
      ],
      "stateMutability": "pure",
      "type": "function"
    },
    {
      "inputs": [],
      "name": "xFate",
      "outputs": [
        {
          "internalType": "contract IFate",
          "name": "",
          "type": "address"
        }
      ],
      "stateMutability": "view",
      "type": "function"
    }
  ],
  "transactionHash": "0xd45b163308952d3ae445f36ca0e5c26e0a42bba57d42940cadc64bfdf74f8319",
  "args": [
    "0x6B7A6163714d3D3244A74be798E0194df6650D6A",
    "0xB2e2650DFdb7b2DEc4a4455a375ffBfD926cE5FC"
  ],
  "solcInputHash": "067b054adfd077c1fce1552f5f448c93",
  "bytecode": "0x60806040523480156200001157600080fd5b506040516200370b3803806200370b833981016040819052620000349162000066565b600080546001600160a01b039384166001600160a01b03199182161790915560018054929093169116179055620000bd565b6000806040838503121562000079578182fd5b82516200008681620000a4565b60208401519092506200009981620000a4565b809150509250929050565b6001600160a01b0381168114620000ba57600080fd5b50565b61363e80620000cd6000396000f3fe6080604052600436106101a15760003560e01c80634634c61f116100e1578063d33219b41161008a578063ddf0b00911610064578063ddf0b00914610455578063deaaa7cc14610475578063e23a9a521461048a578063fe0d94c1146104b7576101a1565b8063d33219b41461040b578063da35c66414610420578063da95691a14610435576101a1565b80637bdbe4d0116100bb5780637bdbe4d0146103cc578063b58131b0146103e1578063d2a6df96146103f6576101a1565b80634634c61f1461035d5780636fc1f57e1461037d578063782d6fe11461039f576101a1565b80631c7036551161014e578063328dd98211610128578063328dd982146102cb5780633932abb1146102fb5780633e4f49e61461031057806340e58ee51461033d576101a1565b80631c7036551461027f57806320606b70146102a157806324bc1a64146102b6576101a1565b80630e18b6811161017f5780630e18b6811461022857806315373e3d1461023f57806317977c611461025f576101a1565b8063013cf08b146101a657806302a251a3146101e457806306fdde0314610206575b600080fd5b3480156101b257600080fd5b506101c66101c136600461271c565b6104ca565b6040516101db999897969594939291906134b5565b60405180910390f35b3480156101f057600080fd5b506101f9610530565b6040516101db9190612b92565b34801561021257600080fd5b5061021b610537565b6040516101db9190612c16565b34801561023457600080fd5b5061023d610570565b005b34801561024b57600080fd5b5061023d61025a366004612760565b610648565b34801561026b57600080fd5b506101f961027a366004612564565b610657565b34801561028b57600080fd5b50610294610669565b6040516101db9190612a04565b3480156102ad57600080fd5b506101f9610685565b3480156102c257600080fd5b506101f96106a9565b3480156102d757600080fd5b506102eb6102e636600461271c565b6106b8565b6040516101db9493929190612b2f565b34801561030757600080fd5b506101f9610990565b34801561031c57600080fd5b5061033061032b36600461271c565b610995565b6040516101db9190612c02565b34801561034957600080fd5b5061023d61035836600461271c565b610b39565b34801561036957600080fd5b5061023d61037836600461278f565b610d62565b34801561038957600080fd5b50610392610f46565b6040516101db9190612b87565b3480156103ab57600080fd5b506103bf6103ba36600461257f565b610f4f565b6040516101db919061351c565b3480156103d857600080fd5b506101f961122c565b3480156103ed57600080fd5b506101f9611231565b34801561040257600080fd5b50610294611240565b34801561041757600080fd5b5061029461125c565b34801561042c57600080fd5b506101f9611278565b34801561044157600080fd5b506101f96104503660046125a9565b61127e565b34801561046157600080fd5b5061023d61047036600461271c565b611665565b34801561048157600080fd5b506101f9611942565b34801561049657600080fd5b506104aa6104a5366004612734565b611966565b6040516101db91906133df565b61023d6104c536600461271c565b6119e4565b6005602052600090815260409020805460018201546002830154600784015460088501546009860154600a870154600b90970154959673ffffffffffffffffffffffffffffffffffffffff90951695939492939192909160ff8082169161010090041689565b6203f48090565b6040518060400160405280601481526020017f464154457820476f7665726e6f7220416c70686100000000000000000000000081525081565b60045460ff161561059c5760405162461bcd60e51b815260040161059390613382565b60405180910390fd5b60008054604080517f0e18b681000000000000000000000000000000000000000000000000000000008152905173ffffffffffffffffffffffffffffffffffffffff90921692630e18b6819260048084019382900301818387803b15801561060357600080fd5b505af1158015610617573d6000803e3d6000fd5b5050600480547fffffffffffffffffffffffffffffffffffffffffffffffffffffffffffffff001660011790555050565b610653338383611bfe565b5050565b60066020526000908152604090205481565b60015473ffffffffffffffffffffffffffffffffffffffff1681565b7f8cad95687ba82c2ce50e74f7b754645e5117c3a5bec8151c0726d5857980a86681565b6a02a5a058fc295ed000000090565b6060806060806000600560008781526020019081526020016000209050806003018160040182600501836006018380548060200260200160405190810160405280929190818152602001828054801561074757602002820191906000526020600020905b815473ffffffffffffffffffffffffffffffffffffffff16815260019091019060200180831161071c575b505050505093508280548060200260200160405190810160405280929190818152602001828054801561079957602002820191906000526020600020905b815481526020019060010190808311610785575b5050505050925081805480602002602001604051908101604052809291908181526020016000905b8282101561088a5760008481526020908190208301805460408051601f60027fffffffffffffffffffffffffffffffffffffffffffffffffffffffffffffffff6101006001871615020190941693909304928301859004850281018501909152818152928301828280156108765780601f1061084b57610100808354040283529160200191610876565b820191906000526020600020905b81548152906001019060200180831161085957829003601f168201915b5050505050815260200190600101906107c1565b50505050915080805480602002602001604051908101604052809291908181526020016000905b8282101561097a5760008481526020908190208301805460408051601f60027fffffffffffffffffffffffffffffffffffffffffffffffffffffffffffffffff6101006001871615020190941693909304928301859004850281018501909152818152928301828280156109665780601f1061093b57610100808354040283529160200191610966565b820191906000526020600020905b81548152906001019060200180831161094957829003601f168201915b5050505050815260200190600101906108b1565b5050505090509450945094509450509193509193565b600190565b600081600354101580156109a95750600082115b6109c55760405162461bcd60e51b815260040161059390612d2f565b6000828152600560205260409020600b81015460ff16156109ea576002915050610b34565b806007015443116109ff576000915050610b34565b80600801544211610a14576001915050610b34565b80600a01548160090154111580610a355750610a2e6106a9565b8160090154105b15610a44576003915050610b34565b6002810154610a57576004915050610b34565b600b810154610100900460ff1615610a73576007915050610b34565b610b1e816002015460008054906101000a900473ffffffffffffffffffffffffffffffffffffffff1673ffffffffffffffffffffffffffffffffffffffff1663c1a287e26040518163ffffffff1660e01b815260040160206040518083038186803b158015610ae157600080fd5b505afa158015610af5573d6000803e3d6000fd5b505050506040513d601f19601f82011682018060405250810190610b199190612691565b611db9565b4210610b2e576006915050610b34565b60059150505b919050565b6000610b4482610995565b90506007816007811115610b5457fe5b1415610b725760405162461bcd60e51b815260040161059390613291565b6000828152600560205260409020610b88611231565b600180830154610bb69173ffffffffffffffffffffffffffffffffffffffff909116906103ba904390611de5565b6bffffffffffffffffffffffff1610610be15760405162461bcd60e51b815260040161059390613017565b600b810180547fffffffffffffffffffffffffffffffffffffffffffffffffffffffffffffff0016600117905560005b6003820154811015610d255760005460038301805473ffffffffffffffffffffffffffffffffffffffff9092169163591fcdfe919084908110610c5057fe5b60009182526020909120015460048501805473ffffffffffffffffffffffffffffffffffffffff9092169185908110610c8557fe5b9060005260206000200154856005018581548110610c9f57fe5b90600052602060002001866006018681548110610cb857fe5b9060005260206000200187600201546040518663ffffffff1660e01b8152600401610ce7959493929190612ae8565b600060405180830381600087803b158015610d0157600080fd5b505af1158015610d15573d6000803e3d6000fd5b505060019092019150610c119050565b507f789cf55be980739dad1d0699b93b58e806b51c9d96619bfa8fe0a28abaa7b30c83604051610d559190612b92565b60405180910390a1505050565b60408051808201909152601481527f464154457820476f7665726e6f7220416c70686100000000000000000000000060209091015260007f8cad95687ba82c2ce50e74f7b754645e5117c3a5bec8151c0726d5857980a8667f46f597e7f4c87e02bbaad6a72eabba241cc432598e68871f3b8dbb3705f904f1610de3611e0d565b30604051602001610df79493929190612b9b565b60405160208183030381529060405280519060200120905060007f8e25870c07e0b0b3884c78da52790939a455c275406c44ae8b434b692fb916ee8787604051602001610e4693929190612bcc565b60405160208183030381529060405280519060200120905060008282604051602001610e739291906129ce565b604051602081830303815290604052805190602001209050600060018288888860405160008152602001604052604051610eb09493929190612be4565b6020604051602081039080840390855afa158015610ed2573d6000803e3d6000fd5b50506040517fffffffffffffffffffffffffffffffffffffffffffffffffffffffffffffffe0015191505073ffffffffffffffffffffffffffffffffffffffff8116610f305760405162461bcd60e51b8152600401610593906131b1565b610f3b818a8a611bfe565b505050505050505050565b60045460ff1681565b600080611166600260009054906101000a900473ffffffffffffffffffffffffffffffffffffffff1673ffffffffffffffffffffffffffffffffffffffff166318160ddd6040518163ffffffff1660e01b815260040160206040518083038186803b158015610fbd57600080fd5b505afa158015610fd1573d6000803e3d6000fd5b505050506040513d601f19601f82011682018060405250810190610ff59190612691565b6001546002546040517f70a082310000000000000000000000000000000000000000000000000000000081526111609273ffffffffffffffffffffffffffffffffffffffff908116926370a08231926110549290911690600401612a04565b60206040518083038186803b15801561106c57600080fd5b505afa158015611080573d6000803e3d6000fd5b505050506040513d601f19601f820116820180604052508101906110a49190612691565b6002546040517f782d6fe100000000000000000000000000000000000000000000000000000000815273ffffffffffffffffffffffffffffffffffffffff9091169063782d6fe1906110fc908b908b90600401612a25565b60206040518083038186803b15801561111457600080fd5b505afa158015611128573d6000803e3d6000fd5b505050506040513d601f19601f8201168201806040525081019061114c91906127e5565b6bffffffffffffffffffffffff1690611e11565b90611e4b565b6001546040517f782d6fe1000000000000000000000000000000000000000000000000000000008152919250829173ffffffffffffffffffffffffffffffffffffffff9091169063782d6fe1906111c39088908890600401612a25565b60206040518083038186803b1580156111db57600080fd5b505afa1580156111ef573d6000803e3d6000fd5b505050506040513d601f19601f8201168201806040525081019061121391906127e5565b6bffffffffffffffffffffffff16019150505b92915050565b600a90565b6a0152d02c7e14af6800000090565b60025473ffffffffffffffffffffffffffffffffffffffff1681565b60005473ffffffffffffffffffffffffffffffffffffffff1681565b60035481565b6000611288611231565b611297336103ba436001611de5565b6bffffffffffffffffffffffff16116112c25760405162461bcd60e51b815260040161059390613154565b845186511480156112d4575083518651145b80156112e1575082518651145b6112fd5760405162461bcd60e51b815260040161059390612f37565b855161131b5760405162461bcd60e51b8152600401610593906130f7565b61132361122c565b865111156113435760405162461bcd60e51b815260040161059390612ea3565b3360009081526006602052604090205480156113c057600061136482610995565b9050600181600781111561137457fe5b14156113925760405162461bcd60e51b81526004016105939061320e565b60008160078111156113a057fe5b14156113be5760405162461bcd60e51b815260040161059390612e20565b505b60006113ce43610b19610990565b905060006113de42610b19610530565b60038054600101905590506113f161200f565b604051806101a0016040528060035481526020013373ffffffffffffffffffffffffffffffffffffffff168152602001600081526020018b81526020018a815260200189815260200188815260200184815260200183815260200160008152602001600081526020016000151581526020016000151581525090508060056000836000015181526020019081526020016000206000820151816000015560208201518160010160006101000a81548173ffffffffffffffffffffffffffffffffffffffff021916908373ffffffffffffffffffffffffffffffffffffffff1602179055506040820151816002015560608201518160030190805190602001906114fb929190612091565b506080820151805161151791600484019160209091019061211b565b5060a08201518051611533916005840191602090910190612162565b5060c0820151805161154f9160068401916020909101906121bb565b5060e082015181600701556101008201518160080155610120820151816009015561014082015181600a015561016082015181600b0160006101000a81548160ff02191690831515021790555061018082015181600b0160016101000a81548160ff021916908315150217905550905050806000015160066000836020015173ffffffffffffffffffffffffffffffffffffffff1673ffffffffffffffffffffffffffffffffffffffff168152602001908152602001600020819055507f7d84a6263ae0d98d3329bd7b46bb4e8d6f98cd35a7adb45c274c8b7fd5ebd5e08160000151338c8c8c8c89898e60405161164f99989796959493929190613412565b60405180910390a1519998505050505050505050565b600461167082610995565b600781111561167b57fe5b146116985760405162461bcd60e51b815260040161059390612c29565b6000818152600560209081526040808320835482517f6a42b8f8000000000000000000000000000000000000000000000000000000008152925191949361171793429373ffffffffffffffffffffffffffffffffffffffff90931692636a42b8f892600480840193919291829003018186803b158015610ae157600080fd5b905060005b60038301548110156119085761190083600301828154811061173a57fe5b60009182526020909120015460048501805473ffffffffffffffffffffffffffffffffffffffff909216918490811061176f57fe5b906000526020600020015485600501848154811061178957fe5b600091825260209182902001805460408051601f60027fffffffffffffffffffffffffffffffffffffffffffffffffffffffffffffffff6101006001871615020190941693909304928301859004850281018501909152818152928301828280156118355780601f1061180a57610100808354040283529160200191611835565b820191906000526020600020905b81548152906001019060200180831161181857829003601f168201915b505050505086600601858154811061184957fe5b600091825260209182902001805460408051601f60027fffffffffffffffffffffffffffffffffffffffffffffffffffffffffffffffff6101006001871615020190941693909304928301859004850281018501909152818152928301828280156118f55780601f106118ca576101008083540402835291602001916118f5565b820191906000526020600020905b8154815290600101906020018083116118d857829003601f168201915b505050505086611e7d565b60010161171c565b50600282018190556040517f9a2e42fd6722813d69113e7d0079d3d940171428df7373df9c7f7617cfda289290610d55908590849061350e565b7f8e25870c07e0b0b3884c78da52790939a455c275406c44ae8b434b692fb916ee81565b61196e612214565b50600091825260056020908152604080842073ffffffffffffffffffffffffffffffffffffffff939093168452600c9092018152918190208151606081018352905460ff80821615158352610100820416151593820193909352620100009092046bffffffffffffffffffffffff169082015290565b60056119ef82610995565b60078111156119fa57fe5b14611a175760405162461bcd60e51b815260040161059390612cac565b6000818152600560205260408120600b810180547fffffffffffffffffffffffffffffffffffffffffffffffffffffffffffff00ff16610100179055905b6003820154811015611bc25760005460048301805473ffffffffffffffffffffffffffffffffffffffff90921691630825f38f919084908110611a9457fe5b9060005260206000200154846003018481548110611aae57fe5b60009182526020909120015460048601805473ffffffffffffffffffffffffffffffffffffffff9092169186908110611ae357fe5b9060005260206000200154866005018681548110611afd57fe5b90600052602060002001876006018781548110611b1657fe5b9060005260206000200188600201546040518763ffffffff1660e01b8152600401611b45959493929190612ae8565b6000604051808303818588803b158015611b5e57600080fd5b505af1158015611b72573d6000803e3d6000fd5b50505050506040513d6000823e601f3d9081017fffffffffffffffffffffffffffffffffffffffffffffffffffffffffffffffe0168201604052611bb991908101906126a9565b50600101611a55565b507f712ae1383f79ac853f8d882153778e0260ef8f03b504e2866e0593e04d2b291f82604051611bf29190612b92565b60405180910390a15050565b6001611c0983610995565b6007811115611c1457fe5b14611c315760405162461bcd60e51b8152600401610593906132ee565b600082815260056020908152604080832073ffffffffffffffffffffffffffffffffffffffff87168452600c8101909252909120805460ff1615611c875760405162461bcd60e51b815260040161059390612d8c565b6000611c97868460070154610f4f565b90508315611cc557611cbb8360090154826bffffffffffffffffffffffff16611db9565b6009840155611ce7565b611ce183600a0154826bffffffffffffffffffffffff16611db9565b600a8401555b815460017fffffffffffffffffffffffffffffffffffffffffffffffffffffffffffffff00909116177fffffffffffffffffffffffffffffffffffffffffffffffffffffffffffff00ff1661010085151502177fffffffffffffffffffffffffffffffffffff000000000000000000000000ffff16620100006bffffffffffffffffffffffff8316021782556040517f877856338e13f63d0c36822ff0ef736b80934cd90574a3a5bc9262c39d217c4690611da9908890889088908690612a4b565b60405180910390a1505050505050565b600082820183811015611dde5760405162461bcd60e51b815260040161059390612f00565b9392505050565b600082821115611e075760405162461bcd60e51b81526004016105939061334b565b50900390565b4690565b600082611e2057506000611226565b82820282848281611e2d57fe5b0414611dde5760405162461bcd60e51b815260040161059390612fba565b6000808211611e6c5760405162461bcd60e51b815260040161059390612de9565b818381611e7557fe5b049392505050565b60005460405173ffffffffffffffffffffffffffffffffffffffff9091169063f2b0653790611eb89088908890889088908890602001612a8e565b604051602081830303815290604052805190602001206040518263ffffffff1660e01b8152600401611eea9190612b92565b60206040518083038186803b158015611f0257600080fd5b505afa158015611f16573d6000803e3d6000fd5b505050506040513d601f19601f82011682018060405250810190611f3a9190612675565b15611f575760405162461bcd60e51b815260040161059390613074565b6000546040517f3a66f90100000000000000000000000000000000000000000000000000000000815273ffffffffffffffffffffffffffffffffffffffff90911690633a66f90190611fb59088908890889088908890600401612a8e565b602060405180830381600087803b158015611fcf57600080fd5b505af1158015611fe3573d6000803e3d6000fd5b505050506040513d601f19601f820116820180604052508101906120079190612691565b505050505050565b604051806101a0016040528060008152602001600073ffffffffffffffffffffffffffffffffffffffff1681526020016000815260200160608152602001606081526020016060815260200160608152602001600081526020016000815260200160008152602001600081526020016000151581526020016000151581525090565b82805482825590600052602060002090810192821561210b579160200282015b8281111561210b57825182547fffffffffffffffffffffffff00000000000000000000000000000000000000001673ffffffffffffffffffffffffffffffffffffffff9091161782556020909201916001909101906120b1565b50612117929150612234565b5090565b828054828255906000526020600020908101928215612156579160200282015b8281111561215657825182559160200191906001019061213b565b5061211792915061226b565b8280548282559060005260206000209081019282156121af579160200282015b828111156121af578251805161219f918491602090910190612280565b5091602001919060010190612182565b506121179291506122ed565b828054828255906000526020600020908101928215612208579160200282015b8281111561220857825180516121f8918491602090910190612280565b50916020019190600101906121db565b5061211792915061230a565b604080516060810182526000808252602082018190529181019190915290565b5b808211156121175780547fffffffffffffffffffffffff0000000000000000000000000000000000000000168155600101612235565b5b80821115612117576000815560010161226c565b828054600181600116156101000203166002900490600052602060002090601f016020900481019282601f106122c157805160ff1916838001178555612156565b82800160010185558215612156579182018281111561215657825182559160200191906001019061213b565b808211156121175760006123018282612327565b506001016122ed565b8082111561211757600061231e8282612327565b5060010161230a565b50805460018160011615610100020316600290046000825580601f1061234d575061236b565b601f01602090049060005260206000209081019061236b919061226b565b50565b803573ffffffffffffffffffffffffffffffffffffffff8116811461122657600080fd5b600082601f8301126123a2578081fd5b81356123b56123b08261355c565b613535565b8181529150602080830190848101818402860182018710156123d657600080fd5b60005b848110156123fd576123eb888361236e565b845292820192908201906001016123d9565b505050505092915050565b600082601f830112612418578081fd5b81356124266123b08261355c565b818152915060208083019084810160005b848110156123fd5761244e888484358a0101612516565b84529282019290820190600101612437565b600082601f830112612470578081fd5b813561247e6123b08261355c565b818152915060208083019084810160005b848110156123fd576124a6888484358a0101612516565b8452928201929082019060010161248f565b600082601f8301126124c8578081fd5b81356124d66123b08261355c565b8181529150602080830190848101818402860182018710156124f757600080fd5b60005b848110156123fd578135845292820192908201906001016124fa565b600082601f830112612526578081fd5b81356125346123b08261357c565b915080825283602082850101111561254b57600080fd5b8060208401602084013760009082016020015292915050565b600060208284031215612575578081fd5b611dde838361236e565b60008060408385031215612591578081fd5b61259b848461236e565b946020939093013593505050565b600080600080600060a086880312156125c0578081fd5b853567ffffffffffffffff808211156125d7578283fd5b6125e389838a01612392565b965060208801359150808211156125f8578283fd5b61260489838a016124b8565b95506040880135915080821115612619578283fd5b61262589838a01612460565b9450606088013591508082111561263a578283fd5b61264689838a01612408565b9350608088013591508082111561265b578283fd5b5061266888828901612516565b9150509295509295909350565b600060208284031215612686578081fd5b8151611dde816135fa565b6000602082840312156126a2578081fd5b5051919050565b6000602082840312156126ba578081fd5b815167ffffffffffffffff8111156126d0578182fd5b8201601f810184136126e0578182fd5b80516126ee6123b08261357c565b818152856020838501011115612702578384fd5b6127138260208301602086016135ca565b95945050505050565b60006020828403121561272d578081fd5b5035919050565b60008060408385031215612746578182fd5b82359150612757846020850161236e565b90509250929050565b60008060408385031215612772578182fd5b823591506020830135612784816135fa565b809150509250929050565b600080600080600060a086880312156127a6578283fd5b8535945060208601356127b8816135fa565b9350604086013560ff811681146127cd578384fd5b94979396509394606081013594506080013592915050565b6000602082840312156127f6578081fd5b81516bffffffffffffffffffffffff81168114611dde578182fd5b6000815180845260208085019450808401835b8381101561285657815173ffffffffffffffffffffffffffffffffffffffff1687529582019590820190600101612824565b509495945050505050565b6000815180845260208085018081965082840281019150828601855b858110156128a75782840389526128958483516128e3565b9885019893509084019060010161287d565b5091979650505050505050565b6000815180845260208085019450808401835b83811015612856578151875295820195908201906001016128c7565b600081518084526128fb8160208601602086016135ca565b601f017fffffffffffffffffffffffffffffffffffffffffffffffffffffffffffffffe0169290920160200192915050565b6000815460018082166000811461294b5760018114612987576129c5565b607f600284041686527fffffffffffffffffffffffffffffffffffffffffffffffffffffffffffffff00831660208701526040860193506129c5565b60028304808752612997866135be565b60005b828110156129bb5781546020828b010152848201915060208101905061299a565b8801602001955050505b50505092915050565b7f190100000000000000000000000000000000000000000000000000000000000081526002810192909252602282015260420190565b73ffffffffffffffffffffffffffffffffffffffff91909116815260200190565b73ffffffffffffffffffffffffffffffffffffffff929092168252602082015260400190565b73ffffffffffffffffffffffffffffffffffffffff9490941684526020840192909252151560408301526bffffffffffffffffffffffff16606082015260800190565b600073ffffffffffffffffffffffffffffffffffffffff8716825285602083015260a06040830152612ac360a08301866128e3565b8281036060840152612ad581866128e3565b9150508260808301529695505050505050565b600073ffffffffffffffffffffffffffffffffffffffff8716825285602083015260a06040830152612b1d60a083018661292d565b8281036060840152612ad5818661292d565b600060808252612b426080830187612811565b8281036020840152612b5481876128b4565b90508281036040840152612b688186612861565b90508281036060840152612b7c8185612861565b979650505050505050565b901515815260200190565b90815260200190565b9384526020840192909252604083015273ffffffffffffffffffffffffffffffffffffffff16606082015260800190565b92835260208301919091521515604082015260600190565b93845260ff9290921660208401526040830152606082015260800190565b6020810160088310612c1057fe5b91905290565b600060208252611dde60208301846128e3565b60208082526044908201527f476f7665726e6f72416c7068613a3a71756575653a2070726f706f73616c206360408201527f616e206f6e6c792062652071756575656420696620697420697320737563636560608201527f6564656400000000000000000000000000000000000000000000000000000000608082015260a00190565b60208082526045908201527f476f7665726e6f72416c7068613a3a657865637574653a2070726f706f73616c60408201527f2063616e206f6e6c79206265206578656375746564206966206974206973207160608201527f7565756564000000000000000000000000000000000000000000000000000000608082015260a00190565b60208082526029908201527f476f7665726e6f72416c7068613a3a73746174653a20696e76616c696420707260408201527f6f706f73616c2069640000000000000000000000000000000000000000000000606082015260800190565b6020808252602d908201527f476f7665726e6f72416c7068613a3a5f63617374566f74653a20766f7465722060408201527f616c726561647920766f74656400000000000000000000000000000000000000606082015260800190565b6020808252601a908201527f536166654d6174683a206469766973696f6e206279207a65726f000000000000604082015260600190565b60208082526059908201527f476f7665726e6f72416c7068613a3a70726f706f73653a206f6e65206c69766560408201527f2070726f706f73616c207065722070726f706f7365722c20666f756e6420616e60608201527f20616c72656164792070656e64696e672070726f706f73616c00000000000000608082015260a00190565b60208082526028908201527f476f7665726e6f72416c7068613a3a70726f706f73653a20746f6f206d616e7960408201527f20616374696f6e73000000000000000000000000000000000000000000000000606082015260800190565b60208082526011908201527f6164646974696f6e206f766572666c6f77000000000000000000000000000000604082015260600190565b60208082526044908201527f476f7665726e6f72416c7068613a3a70726f706f73653a2070726f706f73616c60408201527f2066756e6374696f6e20696e666f726d6174696f6e206172697479206d69736d60608201527f6174636800000000000000000000000000000000000000000000000000000000608082015260a00190565b60208082526021908201527f536166654d6174683a206d756c7469706c69636174696f6e206f766572666c6f60408201527f7700000000000000000000000000000000000000000000000000000000000000606082015260800190565b6020808252602f908201527f476f7665726e6f72416c7068613a3a63616e63656c3a2070726f706f7365722060408201527f61626f7665207468726573686f6c640000000000000000000000000000000000606082015260800190565b60208082526044908201527f476f7665726e6f72416c7068613a3a5f71756575654f725265766572743a207060408201527f726f706f73616c20616374696f6e20616c72656164792071756575656420617460608201527f2065746100000000000000000000000000000000000000000000000000000000608082015260a00190565b6020808252602c908201527f476f7665726e6f72416c7068613a3a70726f706f73653a206d7573742070726f60408201527f7669646520616374696f6e730000000000000000000000000000000000000000606082015260800190565b6020808252603f908201527f476f7665726e6f72416c7068613a3a70726f706f73653a2070726f706f73657260408201527f20766f7465732062656c6f772070726f706f73616c207468726573686f6c6400606082015260800190565b6020808252602f908201527f476f7665726e6f72416c7068613a3a63617374566f746542795369673a20696e60408201527f76616c6964207369676e61747572650000000000000000000000000000000000606082015260800190565b60208082526058908201527f476f7665726e6f72416c7068613a3a70726f706f73653a206f6e65206c69766560408201527f2070726f706f73616c207065722070726f706f7365722c20666f756e6420616e60608201527f20616c7265616479206163746976652070726f706f73616c0000000000000000608082015260a00190565b60208082526036908201527f476f7665726e6f72416c7068613a3a63616e63656c3a2063616e6e6f7420636160408201527f6e63656c2065786563757465642070726f706f73616c00000000000000000000606082015260800190565b6020808252602a908201527f476f7665726e6f72416c7068613a3a5f63617374566f74653a20766f74696e6760408201527f20697320636c6f73656400000000000000000000000000000000000000000000606082015260800190565b60208082526015908201527f7375627472616374696f6e20756e646572666c6f770000000000000000000000604082015260600190565b6020808252602f908201527f476f7665726e6f72416c7068613a3a61636365707441646d696e3a20414c524560408201527f4144595f494e495449414c495a45440000000000000000000000000000000000606082015260800190565b8151151581526020808301511515908201526040918201516bffffffffffffffffffffffff169181019190915260600190565b60006101208b835273ffffffffffffffffffffffffffffffffffffffff8b1660208401528060408401526134488184018b612811565b9050828103606084015261345c818a6128b4565b905082810360808401526134708189612861565b905082810360a08401526134848188612861565b90508560c08401528460e08401528281036101008401526134a581856128e3565b9c9b505050505050505050505050565b98895273ffffffffffffffffffffffffffffffffffffffff97909716602089015260408801959095526060870193909352608086019190915260a085015260c0840152151560e083015215156101008201526101200190565b918252602082015260400190565b6bffffffffffffffffffffffff91909116815260200190565b60405181810167ffffffffffffffff8111828210171561355457600080fd5b604052919050565b600067ffffffffffffffff821115613572578081fd5b5060209081020190565b600067ffffffffffffffff821115613592578081fd5b50601f017fffffffffffffffffffffffffffffffffffffffffffffffffffffffffffffffe01660200190565b60009081526020902090565b60005b838110156135e55781810151838201526020016135cd565b838111156135f4576000848401525b50505050565b801515811461236b57600080fdfea264697066735822122062b1fab7efec49da2dcf86fdd49ca9d1107b5c2876eaef68a3ccac3d334beace64736f6c634300060c0033",
  "devdoc": {
    "kind": "dev",
    "methods": {},
    "version": 1
  },
  "userdoc": {
    "events": {
      "ProposalCanceled(uint256)": {
        "notice": "An event emitted when a proposal has been canceled"
      },
      "ProposalCreated(uint256,address,address[],uint256[],string[],bytes[],uint256,uint256,string)": {
        "notice": "An event emitted when a new proposal is created"
      },
      "ProposalExecuted(uint256)": {
        "notice": "An event emitted when a proposal has been executed in the Timelock"
      },
      "ProposalQueued(uint256,uint256)": {
        "notice": "An event emitted when a proposal has been queued in the Timelock"
      },
      "VoteCast(address,uint256,bool,uint256)": {
        "notice": "An event emitted when a vote has been cast on a proposal"
      }
    },
    "kind": "user",
    "methods": {
      "BALLOT_TYPEHASH()": {
        "notice": "The EIP-712 typehash for the ballot struct used by the contract"
      },
      "DOMAIN_TYPEHASH()": {
        "notice": "The EIP-712 typehash for the contract's domain"
      },
      "admin_initialized()": {
        "notice": "For setting the admin initially on the timelock to this address. Used when the system is being initialized"
      },
      "fate()": {
        "notice": "The address of the FATE governance token"
      },
      "latestProposalIds(address)": {
        "notice": "The latest proposal for each proposer"
      },
      "name()": {
        "notice": "The name of this contract"
      },
      "proposalCount()": {
        "notice": "The total number of proposals"
      },
      "proposalMaxOperations()": {
        "notice": "The maximum number of actions that can be included in a proposal"
      },
      "proposalThreshold()": {
        "notice": "The number of votes required in order for a voter to become a proposer"
      },
      "proposals(uint256)": {
        "notice": "The official record of all proposals ever proposed"
      },
      "quorumVotes()": {
        "notice": "The number of votes in support of a proposal required in order for a quorum to be reached and for a vote to succeed"
      },
      "timelock()": {
        "notice": "The address of the FATEx Protocol Timelock"
      },
      "votingDelay()": {
        "notice": "The delay before voting on a proposal may take place, once proposed"
      },
      "votingPeriod()": {
        "notice": "The duration of voting on a proposal, in seconds"
      },
      "xFate()": {
        "notice": "The address of the xFATE token"
      }
    },
    "version": 1
  },
  "storageLayout": {
    "storage": [
      {
        "astId": 10020,
        "contract": "contracts/governance/GovernorAlpha.sol:GovernorAlpha",
        "label": "timelock",
        "offset": 0,
        "slot": "0",
        "type": "t_contract(TimelockInterface)11175"
      },
      {
        "astId": 10023,
        "contract": "contracts/governance/GovernorAlpha.sol:GovernorAlpha",
        "label": "fate",
        "offset": 0,
        "slot": "1",
        "type": "t_contract(IFate)11204"
      },
      {
        "astId": 10026,
        "contract": "contracts/governance/GovernorAlpha.sol:GovernorAlpha",
        "label": "xFate",
        "offset": 0,
        "slot": "2",
        "type": "t_contract(IFate)11204"
      },
      {
        "astId": 10029,
        "contract": "contracts/governance/GovernorAlpha.sol:GovernorAlpha",
        "label": "proposalCount",
        "offset": 0,
        "slot": "3",
        "type": "t_uint256"
      },
      {
        "astId": 10032,
        "contract": "contracts/governance/GovernorAlpha.sol:GovernorAlpha",
        "label": "admin_initialized",
        "offset": 0,
        "slot": "4",
        "type": "t_bool"
      },
      {
        "astId": 10088,
        "contract": "contracts/governance/GovernorAlpha.sol:GovernorAlpha",
        "label": "proposals",
        "offset": 0,
        "slot": "5",
        "type": "t_mapping(t_uint256,t_struct(Proposal)10067_storage)"
      },
      {
        "astId": 10093,
        "contract": "contracts/governance/GovernorAlpha.sol:GovernorAlpha",
        "label": "latestProposalIds",
        "offset": 0,
        "slot": "6",
        "type": "t_mapping(t_address,t_uint256)"
      }
    ],
    "types": {
      "t_address": {
        "encoding": "inplace",
        "label": "address",
        "numberOfBytes": "20"
      },
      "t_array(t_address)dyn_storage": {
        "base": "t_address",
        "encoding": "dynamic_array",
        "label": "address[]",
        "numberOfBytes": "32"
      },
      "t_array(t_bytes_storage)dyn_storage": {
        "base": "t_bytes_storage",
        "encoding": "dynamic_array",
        "label": "bytes[]",
        "numberOfBytes": "32"
      },
      "t_array(t_string_storage)dyn_storage": {
        "base": "t_string_storage",
        "encoding": "dynamic_array",
        "label": "string[]",
        "numberOfBytes": "32"
      },
      "t_array(t_uint256)dyn_storage": {
        "base": "t_uint256",
        "encoding": "dynamic_array",
        "label": "uint256[]",
        "numberOfBytes": "32"
      },
      "t_bool": {
        "encoding": "inplace",
        "label": "bool",
        "numberOfBytes": "1"
      },
      "t_bytes_storage": {
        "encoding": "bytes",
        "label": "bytes",
        "numberOfBytes": "32"
      },
      "t_contract(IFate)11204": {
        "encoding": "inplace",
        "label": "contract IFate",
        "numberOfBytes": "20"
      },
      "t_contract(TimelockInterface)11175": {
        "encoding": "inplace",
        "label": "contract TimelockInterface",
        "numberOfBytes": "20"
      },
      "t_mapping(t_address,t_struct(Receipt)10074_storage)": {
        "encoding": "mapping",
        "key": "t_address",
        "label": "mapping(address => struct GovernorAlpha.Receipt)",
        "numberOfBytes": "32",
        "value": "t_struct(Receipt)10074_storage"
      },
      "t_mapping(t_address,t_uint256)": {
        "encoding": "mapping",
        "key": "t_address",
        "label": "mapping(address => uint256)",
        "numberOfBytes": "32",
        "value": "t_uint256"
      },
      "t_mapping(t_uint256,t_struct(Proposal)10067_storage)": {
        "encoding": "mapping",
        "key": "t_uint256",
        "label": "mapping(uint256 => struct GovernorAlpha.Proposal)",
        "numberOfBytes": "32",
        "value": "t_struct(Proposal)10067_storage"
      },
      "t_string_storage": {
        "encoding": "bytes",
        "label": "string",
        "numberOfBytes": "32"
      },
      "t_struct(Proposal)10067_storage": {
        "encoding": "inplace",
        "label": "struct GovernorAlpha.Proposal",
        "members": [
          {
            "astId": 10034,
            "contract": "contracts/governance/GovernorAlpha.sol:GovernorAlpha",
            "label": "id",
            "offset": 0,
            "slot": "0",
            "type": "t_uint256"
          },
          {
            "astId": 10036,
            "contract": "contracts/governance/GovernorAlpha.sol:GovernorAlpha",
            "label": "proposer",
            "offset": 0,
            "slot": "1",
            "type": "t_address"
          },
          {
            "astId": 10038,
            "contract": "contracts/governance/GovernorAlpha.sol:GovernorAlpha",
            "label": "eta",
            "offset": 0,
            "slot": "2",
            "type": "t_uint256"
          },
          {
            "astId": 10041,
            "contract": "contracts/governance/GovernorAlpha.sol:GovernorAlpha",
            "label": "targets",
            "offset": 0,
            "slot": "3",
            "type": "t_array(t_address)dyn_storage"
          },
          {
            "astId": 10044,
            "contract": "contracts/governance/GovernorAlpha.sol:GovernorAlpha",
            "label": "values",
            "offset": 0,
            "slot": "4",
            "type": "t_array(t_uint256)dyn_storage"
          },
          {
            "astId": 10047,
            "contract": "contracts/governance/GovernorAlpha.sol:GovernorAlpha",
            "label": "signatures",
            "offset": 0,
            "slot": "5",
            "type": "t_array(t_string_storage)dyn_storage"
          },
          {
            "astId": 10050,
            "contract": "contracts/governance/GovernorAlpha.sol:GovernorAlpha",
            "label": "calldatas",
            "offset": 0,
            "slot": "6",
            "type": "t_array(t_bytes_storage)dyn_storage"
          },
          {
            "astId": 10052,
            "contract": "contracts/governance/GovernorAlpha.sol:GovernorAlpha",
            "label": "startBlock",
            "offset": 0,
            "slot": "7",
            "type": "t_uint256"
          },
          {
            "astId": 10054,
            "contract": "contracts/governance/GovernorAlpha.sol:GovernorAlpha",
            "label": "endTimestamp",
            "offset": 0,
            "slot": "8",
            "type": "t_uint256"
          },
          {
            "astId": 10056,
            "contract": "contracts/governance/GovernorAlpha.sol:GovernorAlpha",
            "label": "forVotes",
            "offset": 0,
            "slot": "9",
            "type": "t_uint256"
          },
          {
            "astId": 10058,
            "contract": "contracts/governance/GovernorAlpha.sol:GovernorAlpha",
            "label": "againstVotes",
            "offset": 0,
            "slot": "10",
            "type": "t_uint256"
          },
          {
            "astId": 10060,
            "contract": "contracts/governance/GovernorAlpha.sol:GovernorAlpha",
            "label": "canceled",
            "offset": 0,
            "slot": "11",
            "type": "t_bool"
          },
          {
            "astId": 10062,
            "contract": "contracts/governance/GovernorAlpha.sol:GovernorAlpha",
            "label": "executed",
            "offset": 1,
            "slot": "11",
            "type": "t_bool"
          },
          {
            "astId": 10066,
            "contract": "contracts/governance/GovernorAlpha.sol:GovernorAlpha",
            "label": "receipts",
            "offset": 0,
            "slot": "12",
            "type": "t_mapping(t_address,t_struct(Receipt)10074_storage)"
          }
        ],
        "numberOfBytes": "416"
      },
      "t_struct(Receipt)10074_storage": {
        "encoding": "inplace",
        "label": "struct GovernorAlpha.Receipt",
        "members": [
          {
            "astId": 10069,
            "contract": "contracts/governance/GovernorAlpha.sol:GovernorAlpha",
            "label": "hasVoted",
            "offset": 0,
            "slot": "0",
            "type": "t_bool"
          },
          {
            "astId": 10071,
            "contract": "contracts/governance/GovernorAlpha.sol:GovernorAlpha",
            "label": "support",
            "offset": 1,
            "slot": "0",
            "type": "t_bool"
          },
          {
            "astId": 10073,
            "contract": "contracts/governance/GovernorAlpha.sol:GovernorAlpha",
            "label": "votes",
            "offset": 2,
            "slot": "0",
            "type": "t_uint96"
          }
        ],
        "numberOfBytes": "32"
      },
      "t_uint256": {
        "encoding": "inplace",
        "label": "uint256",
        "numberOfBytes": "32"
      },
      "t_uint96": {
        "encoding": "inplace",
        "label": "uint96",
        "numberOfBytes": "12"
      }
    }
  }
}