{
  "address": "0xd50D8901aB7F455494cE50eb7665DFB263B0a962",
  "addresses": [
    "0x4FA5f948785510035B8316Dab2FA67e31ce278F7",
    "0xd50D8901aB7F455494cE50eb7665DFB263B0a962"
  ],
  "abi": [
    {
      "inputs": [
        {
          "internalType": "contract IUniswapV2Router01",
          "name": "_oldRouter",
          "type": "address"
        },
        {
          "internalType": "contract IUniswapV2Router01",
          "name": "_router",
          "type": "address"
        },
        {
          "internalType": "bytes32",
          "name": "_initCodeHash",
          "type": "bytes32"
        }
      ],
      "stateMutability": "nonpayable",
      "type": "constructor"
    },
    {
      "inputs": [],
      "name": "initCodeHash",
      "outputs": [
        {
          "internalType": "bytes32",
          "name": "",
          "type": "bytes32"
        }
      ],
      "stateMutability": "view",
      "type": "function"
    },
    {
      "inputs": [
        {
          "internalType": "address",
          "name": "tokenA",
          "type": "address"
        },
        {
          "internalType": "address",
          "name": "tokenB",
          "type": "address"
        },
        {
          "internalType": "uint256",
          "name": "liquidity",
          "type": "uint256"
        },
        {
          "internalType": "uint256",
          "name": "amountAMin",
          "type": "uint256"
        },
        {
          "internalType": "uint256",
          "name": "amountBMin",
          "type": "uint256"
        },
        {
          "internalType": "uint256",
          "name": "deadline",
          "type": "uint256"
        }
      ],
      "name": "migrate",
      "outputs": [],
      "stateMutability": "nonpayable",
      "type": "function"
    },
    {
      "inputs": [
        {
          "internalType": "address",
          "name": "tokenA",
          "type": "address"
        },
        {
          "internalType": "address",
          "name": "tokenB",
          "type": "address"
        },
        {
          "internalType": "uint256",
          "name": "liquidity",
          "type": "uint256"
        },
        {
          "internalType": "uint256",
          "name": "amountAMin",
          "type": "uint256"
        },
        {
          "internalType": "uint256",
          "name": "amountBMin",
          "type": "uint256"
        },
        {
          "internalType": "uint256",
          "name": "deadline",
          "type": "uint256"
        },
        {
          "internalType": "uint8",
          "name": "v",
          "type": "uint8"
        },
        {
          "internalType": "bytes32",
          "name": "r",
          "type": "bytes32"
        },
        {
          "internalType": "bytes32",
          "name": "s",
          "type": "bytes32"
        }
      ],
      "name": "migrateWithPermit",
      "outputs": [],
      "stateMutability": "nonpayable",
      "type": "function"
    },
    {
      "inputs": [],
      "name": "oldRouter",
      "outputs": [
        {
          "internalType": "contract IUniswapV2Router01",
          "name": "",
          "type": "address"
        }
      ],
      "stateMutability": "view",
      "type": "function"
    },
    {
      "inputs": [],
      "name": "router",
      "outputs": [
        {
          "internalType": "contract IUniswapV2Router01",
          "name": "",
          "type": "address"
        }
      ],
      "stateMutability": "view",
      "type": "function"
    }
  ],
  "transactionHash": "0x3728eaebd8cda9d81c85fce15c59f4bffc493708cd022df33cd10fd206164d05",
  "args": [
    "0xda3DD48726278a7F478eFaE3BEf9a5756ccdb4D0",
    "0x82145037096870BA3a5f7beE4C3602BD36e27Bff",
    "0x162f79e638367cd45a118c778971dfd8d96c625d2798d3b71994b035cfe9b6dc"
  ],
  "solcInputHash": "067b054adfd077c1fce1552f5f448c93",
  "bytecode": "0x60e060405234801561001057600080fd5b506040516116d43803806116d48339818101604052606081101561003357600080fd5b50805160208201516040909201516001600160601b0319606092831b81166080529290911b90911660a05260c05260805160601c60a05160601c60c05161162d6100a76000398061035552806104d152508061037952806107cb5280610b0552508061025e52806103b0525061162d6000f3fe608060405234801561001057600080fd5b50600436106100675760003560e01c8063aac55b3911610050578063aac55b391461010b578063db4c545e14610160578063f887ea401461017a57610067565b8063396ac3281461006c578063964c1f98146100da575b600080fd5b6100d8600480360361012081101561008357600080fd5b5073ffffffffffffffffffffffffffffffffffffffff813581169160208101359091169060408101359060608101359060808101359060a08101359060ff60c0820135169060e0810135906101000135610182565b005b6100e261025c565b6040805173ffffffffffffffffffffffffffffffffffffffff9092168252519081900360200190f35b6100d8600480360360c081101561012157600080fd5b5073ffffffffffffffffffffffffffffffffffffffff813581169160208101359091169060408101359060608101359060808101359060a00135610280565b610168610353565b60408051918252519081900360200190f35b6100e2610377565b600061018e8a8a61039b565b604080517fd505accf000000000000000000000000000000000000000000000000000000008152336004820152306024820152604481018b90526064810188905260ff8716608482015260a4810186905260c48101859052905191925073ffffffffffffffffffffffffffffffffffffffff83169163d505accf9160e48082019260009290919082900301818387803b15801561022a57600080fd5b505af115801561023e573d6000803e3d6000fd5b505050506102508a8a8a8a8a8a610280565b50505050505050505050565b7f000000000000000000000000000000000000000000000000000000000000000081565b428110156102d5576040805162461bcd60e51b815260206004820152601a60248201527f4c69717569646974794d69677261746f723a2045585049524544000000000000604482015290519081900360640190fd5b6000806102e6888888888888610516565b915091506000806102f98a8a86866107ad565b91509150818411156103285761032873ffffffffffffffffffffffffffffffffffffffff8b163384870361094d565b808311156102505761025073ffffffffffffffffffffffffffffffffffffffff8a163383860361094d565b7f000000000000000000000000000000000000000000000000000000000000000081565b7f000000000000000000000000000000000000000000000000000000000000000081565b60008060006103aa85856109df565b915091507f000000000000000000000000000000000000000000000000000000000000000073ffffffffffffffffffffffffffffffffffffffff1663c45a01556040518163ffffffff1660e01b815260040160206040518083038186803b15801561041457600080fd5b505afa158015610428573d6000803e3d6000fd5b505050506040513d602081101561043e57600080fd5b5051604080517fffffffffffffffffffffffffffffffffffffffff000000000000000000000000606095861b811660208381019190915294861b81166034830152825160288184030181526048830184528051908601207fff0000000000000000000000000000000000000000000000000000000000000060688401529390951b9094166069850152607d8401919091527f0000000000000000000000000000000000000000000000000000000000000000609d808501919091528151808503909101815260bd909301905281519101209392505050565b6000804283101561056e576040805162461bcd60e51b815260206004820152601a60248201527f4c69717569646974794d69677261746f723a2045585049524544000000000000604482015290519081900360640190fd5b600061057a898961039b565b604080517f23b872dd00000000000000000000000000000000000000000000000000000000815233600482015273ffffffffffffffffffffffffffffffffffffffff831660248201819052604482018b9052915192935090916323b872dd916064808201926020929091908290030181600087803b1580156105fb57600080fd5b505af115801561060f573d6000803e3d6000fd5b505050506040513d602081101561062557600080fd5b5050604080517f89afcb440000000000000000000000000000000000000000000000000000000081523060048201528151600092839273ffffffffffffffffffffffffffffffffffffffff8616926389afcb449260248084019391929182900301818787803b15801561069757600080fd5b505af11580156106ab573d6000803e3d6000fd5b505050506040513d60408110156106c157600080fd5b508051602090910151909250905060006106db8c8c6109df565b5090508073ffffffffffffffffffffffffffffffffffffffff168c73ffffffffffffffffffffffffffffffffffffffff161461071857818361071b565b82825b90965094508886101561075f5760405162461bcd60e51b815260040180806020018281038252602881526020018061150e6028913960400191505060405180910390fd5b8785101561079e5760405162461bcd60e51b81526004018080602001828103825260288152602001806114e66028913960400191505060405180910390fd5b50505050965096945050505050565b6000806107bc86868686610afe565b809250819350505060006108627f000000000000000000000000000000000000000000000000000000000000000073ffffffffffffffffffffffffffffffffffffffff1663c45a01556040518163ffffffff1660e01b815260040160206040518083038186803b15801561082f57600080fd5b505afa158015610843573d6000803e3d6000fd5b505050506040513d602081101561085957600080fd5b50518888610d8d565b905061088573ffffffffffffffffffffffffffffffffffffffff8816828561094d565b6108a673ffffffffffffffffffffffffffffffffffffffff8716828461094d565b604080517f6a627842000000000000000000000000000000000000000000000000000000008152336004820152905173ffffffffffffffffffffffffffffffffffffffff831691636a6278429160248083019260209291908290030181600087803b15801561091457600080fd5b505af1158015610928573d6000803e3d6000fd5b505050506040513d602081101561093e57600080fd5b50929791965090945050505050565b6040805173ffffffffffffffffffffffffffffffffffffffff8416602482015260448082018490528251808303909101815260649091019091526020810180517bffffffffffffffffffffffffffffffffffffffffffffffffffffffff167fa9059cbb000000000000000000000000000000000000000000000000000000001790526109da908490610fdd565b505050565b6000808273ffffffffffffffffffffffffffffffffffffffff168473ffffffffffffffffffffffffffffffffffffffff161415610a4d5760405162461bcd60e51b81526004018080602001828103825260258152602001806115366025913960400191505060405180910390fd5b8273ffffffffffffffffffffffffffffffffffffffff168473ffffffffffffffffffffffffffffffffffffffff1610610a87578284610a8a565b83835b909250905073ffffffffffffffffffffffffffffffffffffffff8216610af7576040805162461bcd60e51b815260206004820152601e60248201527f556e697377617056324c6962726172793a205a45524f5f414444524553530000604482015290519081900360640190fd5b9250929050565b60008060007f000000000000000000000000000000000000000000000000000000000000000073ffffffffffffffffffffffffffffffffffffffff1663c45a01556040518163ffffffff1660e01b815260040160206040518083038186803b158015610b6957600080fd5b505afa158015610b7d573d6000803e3d6000fd5b505050506040513d6020811015610b9357600080fd5b5051604080517fe6a4390500000000000000000000000000000000000000000000000000000000815273ffffffffffffffffffffffffffffffffffffffff8a81166004830152898116602483015291519293506000929184169163e6a4390591604480820192602092909190829003018186803b158015610c1357600080fd5b505afa158015610c27573d6000803e3d6000fd5b505050506040513d6020811015610c3d57600080fd5b505173ffffffffffffffffffffffffffffffffffffffff161415610d0f578073ffffffffffffffffffffffffffffffffffffffff1663c9c6539688886040518363ffffffff1660e01b8152600401808373ffffffffffffffffffffffffffffffffffffffff1681526020018273ffffffffffffffffffffffffffffffffffffffff16815260200192505050602060405180830381600087803b158015610ce257600080fd5b505af1158015610cf6573d6000803e3d6000fd5b505050506040513d6020811015610d0c57600080fd5b50505b600080610d1d838a8a61109b565b91509150816000148015610d2f575080155b15610d3f57869450859350610d81565b6000610d4c888484611183565b9050868111610d6057879550935083610d7f565b6000610d6d888486611183565b905088811115610d7957fe5b95508694505b505b50505094509492505050565b6000806000610d9c85856109df565b91509150858282604051602001808373ffffffffffffffffffffffffffffffffffffffff1660601b81526014018273ffffffffffffffffffffffffffffffffffffffff1660601b815260140192505050604051602081830303815290604052805190602001208773ffffffffffffffffffffffffffffffffffffffff1663ba5ad85d6040518163ffffffff1660e01b815260040160006040518083038186803b158015610e4857600080fd5b505afa158015610e5c573d6000803e3d6000fd5b505050506040513d6000823e601f3d9081017fffffffffffffffffffffffffffffffffffffffffffffffffffffffffffffffe01682016040526020811015610ea357600080fd5b8101908080516040519392919084640100000000821115610ec357600080fd5b908301906020820185811115610ed857600080fd5b8251640100000000811182820188101715610ef257600080fd5b82525081516020918201929091019080838360005b83811015610f1f578181015183820152602001610f07565b50505050905090810190601f168015610f4c5780820380516001836020036101000a031916815260200191505b506040525050508051906020012060405160200180807fff000000000000000000000000000000000000000000000000000000000000008152506001018473ffffffffffffffffffffffffffffffffffffffff1660601b815260140183815260200182815260200193505050506040516020818303038152906040528051906020012060001c925050509392505050565b606061103f826040518060400160405280602081526020017f5361666545524332303a206c6f772d6c6576656c2063616c6c206661696c65648152508573ffffffffffffffffffffffffffffffffffffffff166112299092919063ffffffff16565b8051909150156109da5780806020019051602081101561105e57600080fd5b50516109da5760405162461bcd60e51b815260040180806020018281038252602a8152602001806115ce602a913960400191505060405180910390fd5b60008060006110aa85856109df565b5090506000806110bb888888610d8d565b73ffffffffffffffffffffffffffffffffffffffff16630902f1ac6040518163ffffffff1660e01b815260040160606040518083038186803b15801561110057600080fd5b505afa158015611114573d6000803e3d6000fd5b505050506040513d606081101561112a57600080fd5b5080516020909101516dffffffffffffffffffffffffffff918216935016905073ffffffffffffffffffffffffffffffffffffffff87811690841614611171578082611174565b81815b90999098509650505050505050565b60008084116111c35760405162461bcd60e51b81526004018080602001828103825260258152602001806115a96025913960400191505060405180910390fd5b6000831180156111d35750600082115b61120e5760405162461bcd60e51b81526004018080602001828103825260288152602001806115816028913960400191505060405180910390fd5b826112198584611242565b8161122057fe5b04949350505050565b606061123884846000856112b4565b90505b9392505050565b600081158061125d5750508082028282828161125a57fe5b04145b6112ae576040805162461bcd60e51b815260206004820152601460248201527f64732d6d6174682d6d756c2d6f766572666c6f77000000000000000000000000604482015290519081900360640190fd5b92915050565b6060824710156112f55760405162461bcd60e51b815260040180806020018281038252602681526020018061155b6026913960400191505060405180910390fd5b6112fe8561143b565b61134f576040805162461bcd60e51b815260206004820152601d60248201527f416464726573733a2063616c6c20746f206e6f6e2d636f6e7472616374000000604482015290519081900360640190fd5b600060608673ffffffffffffffffffffffffffffffffffffffff1685876040518082805190602001908083835b602083106113b957805182527fffffffffffffffffffffffffffffffffffffffffffffffffffffffffffffffe0909201916020918201910161137c565b6001836020036101000a03801982511681845116808217855250505050505090500191505060006040518083038185875af1925050503d806000811461141b576040519150601f19603f3d011682016040523d82523d6000602084013e611420565b606091505b5091509150611430828286611441565b979650505050505050565b3b151590565b6060831561145057508161123b565b8251156114605782518084602001fd5b8160405162461bcd60e51b81526004018080602001828103825283818151815260200191508051906020019080838360005b838110156114aa578181015183820152602001611492565b50505050905090810190601f1680156114d75780820380516001836020036101000a031916815260200191505b509250505060405180910390fdfe4c69717569646974794d69677261746f723a20494e53554646494349454e545f425f414d4f554e544c69717569646974794d69677261746f723a20494e53554646494349454e545f415f414d4f554e54556e697377617056324c6962726172793a204944454e544943414c5f414444524553534553416464726573733a20696e73756666696369656e742062616c616e636520666f722063616c6c556e697377617056324c6962726172793a20494e53554646494349454e545f4c4951554944495459556e697377617056324c6962726172793a20494e53554646494349454e545f414d4f554e545361666545524332303a204552433230206f7065726174696f6e20646964206e6f742073756363656564a26469706673582212206c15ea8c3b2ed338a544d52e34ed105a7a8ca07107a6ebfa9fdddc819cb92b7464736f6c634300060c0033",
  "devdoc": {
    "kind": "dev",
    "methods": {},
    "version": 1
  },
  "userdoc": {
    "kind": "user",
    "methods": {},
    "version": 1
  },
  "storageLayout": {
    "storage": [],
    "types": null
  }
}