{
  "address": "0x243FB0a5bD826Ddb0d6D7d4f84137D77F8e4f78a",
  "abi": [
    {
      "inputs": [],
      "stateMutability": "nonpayable",
      "type": "constructor"
    },
    {
      "inputs": [],
      "name": "BLOCKS_PER_WEEK",
      "outputs": [
        {
          "internalType": "uint256",
          "name": "",
          "type": "uint256"
        }
      ],
      "stateMutability": "view",
      "type": "function"
    },
    {
      "inputs": [
        {
          "internalType": "uint256",
          "name": "",
          "type": "uint256"
        }
      ],
      "name": "FATE_PER_BLOCK",
      "outputs": [
        {
          "internalType": "uint256",
          "name": "",
          "type": "uint256"
        }
      ],
      "stateMutability": "view",
      "type": "function"
    },
    {
      "inputs": [
        {
          "internalType": "uint256",
          "name": "index",
          "type": "uint256"
        }
      ],
      "name": "getFateAtIndex",
      "outputs": [
        {
          "internalType": "uint256",
          "name": "",
          "type": "uint256"
        }
      ],
      "stateMutability": "view",
      "type": "function"
    },
    {
      "inputs": [
        {
          "internalType": "uint256",
          "name": "_startBlock",
          "type": "uint256"
        },
        {
          "internalType": "uint256",
          "name": "_fromBlock",
          "type": "uint256"
        },
        {
          "internalType": "uint256",
          "name": "_toBlock",
          "type": "uint256"
        }
      ],
      "name": "getFatePerBlock",
      "outputs": [
        {
          "internalType": "uint256",
          "name": "",
          "type": "uint256"
        }
      ],
      "stateMutability": "view",
      "type": "function"
    },
    {
      "inputs": [],
      "name": "rewardsNumberOfWeeks",
      "outputs": [
        {
          "internalType": "uint256",
          "name": "",
          "type": "uint256"
        }
      ],
      "stateMutability": "view",
      "type": "function"
    }
  ],
  "transactionHash": "0xda7927e6f175e85b336105d5feb1c634ee67608f68b0394c65b3e3ba3881d3f4",
  "args": [],
  "solcInputHash": "067b054adfd077c1fce1552f5f448c93",
  "bytecode": "0x6102406040526801f399b1438a10000060809081526801faad938fcd83000060a052680201c175dc10f6000060c052680208f8df1ac42a000060e052680210304859775e000061010052680217aebf7d0a1400006101205268021f2d36a09cca000061014052680226cf34b69f4100006101605268022e7132cca1b80000610180526802365a3ec783b100006101a05268023e434ac265aa00006101c0526802464fddafb76400006101e05268024e7ff78f78df0000610200526803e733628714200000610220526100d590600090600e6100e8565b503480156100e257600080fd5b50610146565b8260488101928215610121579160200282015b8281111561012157825182906001600160481b03169055916020019190600101906100fb565b5061012d929150610131565b5090565b5b8082111561012d5760008155600101610132565b61030f806101556000396000f3fe608060405234801561001057600080fd5b50600436106100675760003560e01c8063c0f34ddc11610050578063c0f34ddc146100b8578063fb4c0e49146100c0578063fc47e209146100e957610067565b806344ea9de51461006c5780639d33918e1461009b575b600080fd5b6100896004803603602081101561008257600080fd5b50356100f1565b60408051918252519081900360200190f35b610089600480360360208110156100b157600080fd5b5035610105565b61008961014a565b610089600480360360608110156100d657600080fd5b508035906020810135906040013561014f565b6100896102a2565b600081604881106100fe57fe5b0154905081565b6000600d82101561013357600a6000836048811061011f57fe5b01546002028161012b57fe5b049050610145565b6000826048811061014057fe5b015490505b919050565b604890565b60008184118061015e57508183145b1561016b5750600061029b565b83831015610177578392505b818311156101d0576040517f08c379a00000000000000000000000000000000000000000000000000000000081526004018080602001828103825260308152602001806102aa6030913960400191505060405180910390fd5b63014c3a0084018084106101e857600091505061029b565b8083106101f6576001810392505b62049d4085850381900490868503048082101561027f5762049d408787038190069003600061022484610105565b82029050600184015b838110156102505761023e81610105565b62049d4002919091019060010161022d565b5062049d4089880306915061026483610105565b820201878703818161027257fe5b049550505050505061029b565b80821461028857fe5b85850361029483610105565b0293505050505b9392505050565b62049d408156fe456d697373696f6e5363686564756c653a3a67657446617465506572426c6f636b3a20494e56414c49445f52414e4745a264697066735822122019644234945c950e173856069f3fdbceadf363f531ca99bdf58825d79638171164736f6c634300060c0033",
  "devdoc": {
    "kind": "dev",
    "methods": {},
    "version": 1
  },
  "userdoc": {
    "kind": "user",
    "methods": {
      "getFatePerBlock(uint256,uint256,uint256)": {
        "notice": "returns the average amount of FATE earned per block over any block period. If spanned over multiple weeks, a weighted average is calculated. Both _fromBlock and _toBlock are inclusive"
      }
    },
    "version": 1
  },
  "storageLayout": {
    "storage": [
      {
        "astId": 8753,
        "contract": "contracts/fatex/RewardSchedule.sol:RewardSchedule",
        "label": "FATE_PER_BLOCK",
        "offset": 0,
        "slot": "0",
        "type": "t_array(t_uint256)72_storage"
      }
    ],
    "types": {
      "t_array(t_uint256)72_storage": {
        "base": "t_uint256",
        "encoding": "inplace",
        "label": "uint256[72]",
        "numberOfBytes": "2304"
      },
      "t_uint256": {
        "encoding": "inplace",
        "label": "uint256",
        "numberOfBytes": "32"
      }
    }
  }
}