{
  "address": "0x1C2A867593Ed6c6782f1cDf47237fF3EE66bDbE1",
  "abi": [
    {
      "inputs": [
        {
          "internalType": "address",
          "name": "_factory",
          "type": "address"
        },
        {
          "internalType": "address",
          "name": "_xFate",
          "type": "address"
        },
        {
          "internalType": "address",
          "name": "_fate",
          "type": "address"
        },
        {
          "internalType": "address",
          "name": "_weth",
          "type": "address"
        }
      ],
      "stateMutability": "nonpayable",
      "type": "constructor"
    },
    {
      "anonymous": false,
      "inputs": [
        {
          "indexed": true,
          "internalType": "address",
          "name": "token",
          "type": "address"
        },
        {
          "indexed": true,
          "internalType": "address",
          "name": "bridge",
          "type": "address"
        }
      ],
      "name": "LogBridgeSet",
      "type": "event"
    },
    {
      "anonymous": false,
      "inputs": [
        {
          "indexed": true,
          "internalType": "address",
          "name": "server",
          "type": "address"
        },
        {
          "indexed": true,
          "internalType": "address",
          "name": "token0",
          "type": "address"
        },
        {
          "indexed": true,
          "internalType": "address",
          "name": "token1",
          "type": "address"
        },
        {
          "indexed": false,
          "internalType": "uint256",
          "name": "amount0",
          "type": "uint256"
        },
        {
          "indexed": false,
          "internalType": "uint256",
          "name": "amount1",
          "type": "uint256"
        },
        {
          "indexed": false,
          "internalType": "uint256",
          "name": "amountFATE",
          "type": "uint256"
        }
      ],
      "name": "LogConvert",
      "type": "event"
    },
    {
      "anonymous": false,
      "inputs": [
        {
          "indexed": true,
          "internalType": "address",
          "name": "previousOwner",
          "type": "address"
        },
        {
          "indexed": true,
          "internalType": "address",
          "name": "newOwner",
          "type": "address"
        }
      ],
      "name": "OwnershipTransferred",
      "type": "event"
    },
    {
      "inputs": [
        {
          "internalType": "address",
          "name": "token",
          "type": "address"
        }
      ],
      "name": "bridgeFor",
      "outputs": [
        {
          "internalType": "address",
          "name": "bridge",
          "type": "address"
        }
      ],
      "stateMutability": "view",
      "type": "function"
    },
    {
      "inputs": [
        {
          "internalType": "address",
          "name": "token0",
          "type": "address"
        },
        {
          "internalType": "address",
          "name": "token1",
          "type": "address"
        }
      ],
      "name": "convert",
      "outputs": [],
      "stateMutability": "nonpayable",
      "type": "function"
    },
    {
      "inputs": [
        {
          "internalType": "address[]",
          "name": "token0",
          "type": "address[]"
        },
        {
          "internalType": "address[]",
          "name": "token1",
          "type": "address[]"
        }
      ],
      "name": "convertMultiple",
      "outputs": [],
      "stateMutability": "nonpayable",
      "type": "function"
    },
    {
      "inputs": [],
      "name": "factory",
      "outputs": [
        {
          "internalType": "contract IUniswapV2Factory",
          "name": "",
          "type": "address"
        }
      ],
      "stateMutability": "view",
      "type": "function"
    },
    {
      "inputs": [],
      "name": "owner",
      "outputs": [
        {
          "internalType": "address",
          "name": "",
          "type": "address"
        }
      ],
      "stateMutability": "view",
      "type": "function"
    },
    {
      "inputs": [],
      "name": "renounceOwnership",
      "outputs": [],
      "stateMutability": "nonpayable",
      "type": "function"
    },
    {
      "inputs": [
        {
          "internalType": "address",
          "name": "token",
          "type": "address"
        },
        {
          "internalType": "address",
          "name": "bridge",
          "type": "address"
        }
      ],
      "name": "setBridge",
      "outputs": [],
      "stateMutability": "nonpayable",
      "type": "function"
    },
    {
      "inputs": [
        {
          "internalType": "address",
          "name": "newOwner",
          "type": "address"
        }
      ],
      "name": "transferOwnership",
      "outputs": [],
      "stateMutability": "nonpayable",
      "type": "function"
    },
    {
      "inputs": [],
      "name": "xFATE",
      "outputs": [
        {
          "internalType": "address",
          "name": "",
          "type": "address"
        }
      ],
      "stateMutability": "view",
      "type": "function"
    }
  ],
  "transactionHash": "0x6db61ed2c92a20e314eb7a104b2d20e84a1ae81866b3ebf6f36a1bcf6aaae9a7",
  "args": [
    "0xa4EF1da515096DB768Bc47DBC080888795643442",
    "0x6f4078cb47438157c914409d10358a0Cf4b06AB7",
    "0xB2e2650DFdb7b2DEc4a4455a375ffBfD926cE5FC",
    "0xcf664087a5bb0237a0bad6742852ec6c8d69a27a"
  ],
  "solcInputHash": "067b054adfd077c1fce1552f5f448c93",
  "bytecode": "0x61010060405234801561001157600080fd5b50604051611aed380380611aed8339818101604052608081101561003457600080fd5b508051602082015160408301516060909301519192909160006100556100ce565b600080546001600160a01b0319166001600160a01b0383169081178255604051929350917f8be0079c531659141344cd1fd0a4f28419497f9722a3daafe3b4186f6b6457e0908290a3506001600160601b0319606094851b811660805292841b831660a05290831b821660c05290911b1660e0526100d2565b3390565b60805160601c60a05160601c60c05160601c60e05160601c61196c6101816000398061048252806105a25280610bd35280610c105280610db55280610df25280610e1b5280610e485280610e855280610eae5250806104455280610b3d5280610b825280610c705280610cb55280610d195280610d5e528061109e5250806107655280610ba45280610cd75280610d8052806110c0525080610615528061078b52806110f0525061196c6000f3fe608060405234801561001057600080fd5b50600436106100a35760003560e01c8063a761a93911610076578063c45a01551161005b578063c45a01551461021a578063f2fde38b14610222578063fc1283de14610248576100a3565b8063a761a939146101c6578063bd1b820c146101ec576100a3565b8063303e6aa4146100a8578063715018a61461016c5780638da5cb5b146101745780639d22ae8c14610198575b600080fd5b61016a600480360360408110156100be57600080fd5b8101906020810181356401000000008111156100d957600080fd5b8201836020820111156100eb57600080fd5b8035906020019184602083028401116401000000008311171561010d57600080fd5b91939092909160208101903564010000000081111561012b57600080fd5b82018360208201111561013d57600080fd5b8035906020019184602083028401116401000000008311171561015f57600080fd5b509092509050610250565b005b61016a6102ea565b61017c6103c0565b604080516001600160a01b039092168252519081900360200190f35b61016a600480360360408110156101ae57600080fd5b506001600160a01b03813581169160200135166103cf565b61017c600480360360208110156101dc57600080fd5b50356001600160a01b031661057f565b61016a6004803603604081101561020257600080fd5b506001600160a01b03813581169160200135166105c7565b61017c610613565b61016a6004803603602081101561023857600080fd5b50356001600160a01b0316610637565b61017c610763565b33321461028e5760405162461bcd60e51b815260040180806020018281038252602581526020018061187b6025913960400191505060405180910390fd5b8260005b818110156102e2576102da8686838181106102a957fe5b905060200201356001600160a01b03168585848181106102c557fe5b905060200201356001600160a01b0316610787565b600101610292565b505050505050565b6102f2610a88565b6001600160a01b03166103036103c0565b6001600160a01b03161461035e576040805162461bcd60e51b815260206004820181905260248201527f4f776e61626c653a2063616c6c6572206973206e6f7420746865206f776e6572604482015290519081900360640190fd5b600080546040516001600160a01b03909116907f8be0079c531659141344cd1fd0a4f28419497f9722a3daafe3b4186f6b6457e0908390a3600080547fffffffffffffffffffffffff0000000000000000000000000000000000000000169055565b6000546001600160a01b031690565b6103d7610a88565b6001600160a01b03166103e86103c0565b6001600160a01b031614610443576040805162461bcd60e51b815260206004820181905260248201527f4f776e61626c653a2063616c6c6572206973206e6f7420746865206f776e6572604482015290519081900360640190fd5b7f00000000000000000000000000000000000000000000000000000000000000006001600160a01b0316826001600160a01b0316141580156104b757507f00000000000000000000000000000000000000000000000000000000000000006001600160a01b0316826001600160a01b031614155b80156104d55750806001600160a01b0316826001600160a01b031614155b6105105760405162461bcd60e51b81526004018080602001828103825260278152602001806118a06027913960400191505060405180910390fd5b6001600160a01b0382811660008181526001602052604080822080547fffffffffffffffffffffffff0000000000000000000000000000000000000000169486169485179055517f2e103aa707acc565f9a1547341914802b2bfe977fd79c595209f248ae4b006139190a35050565b6001600160a01b0380821660009081526001602052604090205416806105c257507f00000000000000000000000000000000000000000000000000000000000000005b919050565b3332146106055760405162461bcd60e51b815260040180806020018281038252602581526020018061187b6025913960400191505060405180910390fd5b61060f8282610787565b5050565b7f000000000000000000000000000000000000000000000000000000000000000081565b61063f610a88565b6001600160a01b03166106506103c0565b6001600160a01b0316146106ab576040805162461bcd60e51b815260206004820181905260248201527f4f776e61626c653a2063616c6c6572206973206e6f7420746865206f776e6572604482015290519081900360640190fd5b6001600160a01b0381166106f05760405162461bcd60e51b815260040180806020018281038252602681526020018061182f6026913960400191505060405180910390fd5b600080546040516001600160a01b03808516939216917f8be0079c531659141344cd1fd0a4f28419497f9722a3daafe3b4186f6b6457e091a3600080547fffffffffffffffffffffffff0000000000000000000000000000000000000000166001600160a01b0392909216919091179055565b7f000000000000000000000000000000000000000000000000000000000000000081565b60007f00000000000000000000000000000000000000000000000000000000000000006001600160a01b031663e6a4390584846040518363ffffffff1660e01b815260040180836001600160a01b03168152602001826001600160a01b031681526020019250505060206040518083038186803b15801561080757600080fd5b505afa15801561081b573d6000803e3d6000fd5b505050506040513d602081101561083157600080fd5b505190506001600160a01b03811661087a5760405162461bcd60e51b81526004018080602001828103825260258152602001806118c76025913960400191505060405180910390fd5b61090881826001600160a01b03166370a08231306040518263ffffffff1660e01b815260040180826001600160a01b0316815260200191505060206040518083038186803b1580156108cb57600080fd5b505afa1580156108df573d6000803e3d6000fd5b505050506040513d60208110156108f557600080fd5b50516001600160a01b0384169190610a8c565b600080826001600160a01b03166389afcb44306040518263ffffffff1660e01b815260040180826001600160a01b031681526020019150506040805180830381600087803b15801561095957600080fd5b505af115801561096d573d6000803e3d6000fd5b505050506040513d604081101561098357600080fd5b508051602091820151604080517f0dfe168100000000000000000000000000000000000000000000000000000000815290519295509093506001600160a01b03861692630dfe168192600480840193829003018186803b1580156109e657600080fd5b505afa1580156109fa573d6000803e3d6000fd5b505050506040513d6020811015610a1057600080fd5b50516001600160a01b03868116911614610a2657905b6001600160a01b03808516908616337fd06b1d7ed79b664d17472c6f6997b929f1abe463ccccb4e5b6a0038f2f730c158585610a648b8b8484610b11565b60408051938452602084019290925282820152519081900360600190a45050505050565b3390565b604080516001600160a01b038416602482015260448082018490528251808303909101815260649091019091526020810180517bffffffffffffffffffffffffffffffffffffffffffffffffffffffff167fa9059cbb00000000000000000000000000000000000000000000000000000000179052610b0c908490610f82565b505050565b6000836001600160a01b0316856001600160a01b03161415610c6e576000610b398484611033565b90507f00000000000000000000000000000000000000000000000000000000000000006001600160a01b0316866001600160a01b03161415610bd157610bc96001600160a01b037f0000000000000000000000000000000000000000000000000000000000000000167f000000000000000000000000000000000000000000000000000000000000000083610a8c565b809150610c68565b7f00000000000000000000000000000000000000000000000000000000000000006001600160a01b0316866001600160a01b03161415610c3c57610c357f000000000000000000000000000000000000000000000000000000000000000082611096565b9150610c68565b6000610c478761057f565b9050610c55878284306110eb565b9150610c648182846000610b11565b9250505b50610f7a565b7f00000000000000000000000000000000000000000000000000000000000000006001600160a01b0316856001600160a01b03161415610d1757610cfc6001600160a01b037f0000000000000000000000000000000000000000000000000000000000000000167f000000000000000000000000000000000000000000000000000000000000000085610a8c565b610d1083610d0a8685611096565b90611033565b9050610f7a565b7f00000000000000000000000000000000000000000000000000000000000000006001600160a01b0316846001600160a01b03161415610db357610da56001600160a01b037f0000000000000000000000000000000000000000000000000000000000000000167f000000000000000000000000000000000000000000000000000000000000000084610a8c565b610d1082610d0a8786611096565b7f00000000000000000000000000000000000000000000000000000000000000006001600160a01b0316856001600160a01b03161415610e4657610d107f0000000000000000000000000000000000000000000000000000000000000000610e4185610d0a887f000000000000000000000000000000000000000000000000000000000000000088306110eb565b611096565b7f00000000000000000000000000000000000000000000000000000000000000006001600160a01b0316846001600160a01b03161415610ed457610d107f0000000000000000000000000000000000000000000000000000000000000000610e4184610d0a897f000000000000000000000000000000000000000000000000000000000000000089306110eb565b6000610edf8661057f565b90506000610eec8661057f565b9050856001600160a01b0316826001600160a01b03161415610f2657610f1f8287610f198a868a306110eb565b87610b11565b9250610f77565b866001600160a01b0316816001600160a01b03161415610f5757610f1f878287610f528a868a306110eb565b610b11565b610f748282610f688a868a306110eb565b610f528a868a306110eb565b92505b50505b949350505050565b6060610fd7826040518060400160405280602081526020017f5361666545524332303a206c6f772d6c6576656c2063616c6c206661696c6564815250856001600160a01b03166115869092919063ffffffff16565b805190915015610b0c57808060200190516020811015610ff657600080fd5b5051610b0c5760405162461bcd60e51b815260040180806020018281038252602a81526020018061190d602a913960400191505060405180910390fd5b60008282018381101561108d576040805162461bcd60e51b815260206004820152601b60248201527f536166654d6174683a206164646974696f6e206f766572666c6f770000000000604482015290519081900360640190fd5b90505b92915050565b60006110e4837f0000000000000000000000000000000000000000000000000000000000000000847f00000000000000000000000000000000000000000000000000000000000000006110eb565b9392505050565b6000807f00000000000000000000000000000000000000000000000000000000000000006001600160a01b031663e6a4390587876040518363ffffffff1660e01b815260040180836001600160a01b03168152602001826001600160a01b031681526020019250505060206040518083038186803b15801561116c57600080fd5b505afa158015611180573d6000803e3d6000fd5b505050506040513d602081101561119657600080fd5b505190506001600160a01b0381166111df5760405162461bcd60e51b81526004018080602001828103825260278152602001806118086027913960400191505060405180910390fd5b600080826001600160a01b0316630902f1ac6040518163ffffffff1660e01b815260040160606040518083038186803b15801561121b57600080fd5b505afa15801561122f573d6000803e3d6000fd5b505050506040513d606081101561124557600080fd5b5080516020909101516dffffffffffffffffffffffffffff91821693501690506000611273876103e5611595565b9050836001600160a01b0316630dfe16816040518163ffffffff1660e01b815260040160206040518083038186803b1580156112ae57600080fd5b505afa1580156112c2573d6000803e3d6000fd5b505050506040513d60208110156112d857600080fd5b50516001600160a01b038a811691161415611438576112fd81610d0a856103e8611595565b6113138361130d8a6103e5611595565b90611595565b8161131a57fe5b0494506113316001600160a01b038a168589610a8c565b60408051600080825260208201928390527f022c0d9f00000000000000000000000000000000000000000000000000000000835260248201818152604483018990526001600160a01b038a81166064850152608060848501908152845160a48601819052918a169563022c0d9f958c948e9491939092909160c4850191908083838b5b838110156113cc5781810151838201526020016113b4565b50505050905090810190601f1680156113f95780820380516001836020036101000a031916815260200191505b5095505050505050600060405180830381600087803b15801561141b57600080fd5b505af115801561142f573d6000803e3d6000fd5b5050505061157a565b61144881610d0a846103e8611595565b6114588461130d8a6103e5611595565b8161145f57fe5b0494506114766001600160a01b038a168589610a8c565b60408051600080825260208201928390527f022c0d9f00000000000000000000000000000000000000000000000000000000835260248201888152604483018290526001600160a01b038a81166064850152608060848501908152845160a48601819052918a169563022c0d9f958c95948e9491939092909160c4850191908083838a5b838110156115125781810151838201526020016114fa565b50505050905090810190601f16801561153f5780820380516001836020036101000a031916815260200191505b5095505050505050600060405180830381600087803b15801561156157600080fd5b505af1158015611575573d6000803e3d6000fd5b505050505b50505050949350505050565b6060610f7a84846000856115ee565b6000826115a457506000611090565b828202828482816115b157fe5b041461108d5760405162461bcd60e51b81526004018080602001828103825260218152602001806118ec6021913960400191505060405180910390fd5b60608247101561162f5760405162461bcd60e51b81526004018080602001828103825260268152602001806118556026913960400191505060405180910390fd5b6116388561175d565b611689576040805162461bcd60e51b815260206004820152601d60248201527f416464726573733a2063616c6c20746f206e6f6e2d636f6e7472616374000000604482015290519081900360640190fd5b60006060866001600160a01b031685876040518082805190602001908083835b602083106116e657805182527fffffffffffffffffffffffffffffffffffffffffffffffffffffffffffffffe090920191602091820191016116a9565b6001836020036101000a03801982511681845116808217855250505050505090500191505060006040518083038185875af1925050503d8060008114611748576040519150601f19603f3d011682016040523d82523d6000602084013e61174d565b606091505b5091509150610f74828286611763565b3b151590565b606083156117725750816110e4565b8251156117825782518084602001fd5b8160405162461bcd60e51b81526004018080602001828103825283818151815260200191508051906020019080838360005b838110156117cc5781810151838201526020016117b4565b50505050905090810190601f1680156117f95780820380516001836020036101000a031916815260200191505b509250505060405180910390fdfe466565546f6b656e436f6e766572746572546f466174653a2043616e6e6f7420636f6e766572744f776e61626c653a206e6577206f776e657220697320746865207a65726f2061646472657373416464726573733a20696e73756666696369656e742062616c616e636520666f722063616c6c466565546f6b656e436f6e766572746572546f466174653a206d7573742075736520454f41466565546f6b656e436f6e766572746572546f466174653a20496e76616c696420627269646765466565546f6b656e436f6e766572746572546f466174653a20496e76616c69642070616972536166654d6174683a206d756c7469706c69636174696f6e206f766572666c6f775361666545524332303a204552433230206f7065726174696f6e20646964206e6f742073756363656564a2646970667358221220d75b78980e1685a8b318b315b5da8a01ad1f7b87c61a69f7cd7805edb736f70d64736f6c634300060c0033",
  "devdoc": {
    "kind": "dev",
    "methods": {
      "owner()": {
        "details": "Returns the address of the current owner."
      },
      "renounceOwnership()": {
        "details": "Leaves the contract without owner. It will not be possible to call `onlyOwner` functions anymore. Can only be called by the current owner. NOTE: Renouncing ownership will leave the contract without an owner, thereby removing any functionality that is only available to the owner."
      },
      "transferOwnership(address)": {
        "details": "Transfers ownership of the contract to a new account (`newOwner`). Can only be called by the current owner."
      }
    },
    "version": 1
  },
  "userdoc": {
    "kind": "user",
    "methods": {},
    "version": 1
  },
  "storageLayout": {
    "storage": [
      {
        "astId": 7,
        "contract": "contracts/fatex/FeeTokenConverterToFate.sol:FeeTokenConverterToFate",
        "label": "_owner",
        "offset": 0,
        "slot": "0",
        "type": "t_address"
      },
      {
        "astId": 7534,
        "contract": "contracts/fatex/FeeTokenConverterToFate.sol:FeeTokenConverterToFate",
        "label": "_bridges",
        "offset": 0,
        "slot": "1",
        "type": "t_mapping(t_address,t_address)"
      }
    ],
    "types": {
      "t_address": {
        "encoding": "inplace",
        "label": "address",
        "numberOfBytes": "20"
      },
      "t_mapping(t_address,t_address)": {
        "encoding": "mapping",
        "key": "t_address",
        "label": "mapping(address => address)",
        "numberOfBytes": "32",
        "value": "t_address"
      }
    }
  }
}