{
  "address": "0xe78A3B1338a451695199Bf963c5D080d29472507",
  "abi": [
    {
      "inputs": [
        {
          "internalType": "contract IERC20",
          "name": "_fate",
          "type": "address"
        },
        {
          "internalType": "contract UniswapV2Router02",
          "name": "_router",
          "type": "address"
        },
        {
          "internalType": "address",
          "name": "_beneficiary",
          "type": "address"
        }
      ],
      "stateMutability": "nonpayable",
      "type": "constructor"
    },
    {
      "anonymous": false,
      "inputs": [
        {
          "indexed": true,
          "internalType": "address",
          "name": "previousOwner",
          "type": "address"
        },
        {
          "indexed": true,
          "internalType": "address",
          "name": "newOwner",
          "type": "address"
        }
      ],
      "name": "OwnershipTransferred",
      "type": "event"
    },
    {
      "inputs": [],
      "name": "owner",
      "outputs": [
        {
          "internalType": "address",
          "name": "",
          "type": "address"
        }
      ],
      "stateMutability": "view",
      "type": "function"
    },
    {
      "inputs": [],
      "name": "renounceOwnership",
      "outputs": [],
      "stateMutability": "nonpayable",
      "type": "function"
    },
    {
      "inputs": [
        {
          "internalType": "address",
          "name": "_token",
          "type": "address"
        }
      ],
      "name": "saveTokens",
      "outputs": [],
      "stateMutability": "nonpayable",
      "type": "function"
    },
    {
      "inputs": [
        {
          "internalType": "uint256",
          "name": "_amount",
          "type": "uint256"
        },
        {
          "internalType": "uint256",
          "name": "_amountOutMin",
          "type": "uint256"
        },
        {
          "internalType": "address[]",
          "name": "_path",
          "type": "address[]"
        }
      ],
      "name": "sellSome",
      "outputs": [],
      "stateMutability": "nonpayable",
      "type": "function"
    },
    {
      "inputs": [
        {
          "internalType": "address",
          "name": "_beneficiary",
          "type": "address"
        }
      ],
      "name": "setBeneficiary",
      "outputs": [],
      "stateMutability": "nonpayable",
      "type": "function"
    },
    {
      "inputs": [
        {
          "internalType": "address",
          "name": "newOwner",
          "type": "address"
        }
      ],
      "name": "transferOwnership",
      "outputs": [],
      "stateMutability": "nonpayable",
      "type": "function"
    },
    {
      "inputs": [],
      "name": "withdrawTokens",
      "outputs": [],
      "stateMutability": "nonpayable",
      "type": "function"
    }
  ],
  "transactionHash": "0xcf081ece56fec0e5a96358ba40850318854a8f91bee02d68aa8b24e523780e70",
  "args": [
    "0xB2e2650DFdb7b2DEc4a4455a375ffBfD926cE5FC",
    "0x82145037096870BA3a5f7beE4C3602BD36e27Bff",
    "0x05eEE03F9A3Fa10aAC2921451421A9f4e37EaBbc"
  ],
  "solcInputHash": "067b054adfd077c1fce1552f5f448c93",
  "bytecode": "0x608060405234801561001057600080fd5b5060405161109c38038061109c8339818101604052606081101561003357600080fd5b5080516020820151604090920151909190600061004e6100da565b600080546001600160a01b0319166001600160a01b0383169081178255604051929350917f8be0079c531659141344cd1fd0a4f28419497f9722a3daafe3b4186f6b6457e0908290a350600180546001600160a01b039485166001600160a01b0319918216179091556002805493851693821693909317909255600380549190931691161790556100de565b3390565b610faf806100ed6000396000f3fe608060405234801561001057600080fd5b506004361061007d5760003560e01c80638d8f2adb1161005b5780638d8f2adb1461013b5780638da5cb5b1461014357806398c99c9e14610174578063f2fde38b146101a75761007d565b80630255ab6a146100825780631c31f71014610100578063715018a614610133575b600080fd5b6100fe6004803603606081101561009857600080fd5b8135916020810135918101906060810160408201356401000000008111156100bf57600080fd5b8201836020820111156100d157600080fd5b803590602001918460208302840111640100000000831117156100f357600080fd5b5090925090506101da565b005b6100fe6004803603602081101561011657600080fd5b503573ffffffffffffffffffffffffffffffffffffffff166104ab565b6100fe610653565b6100fe610750565b61014b6108a8565b6040805173ffffffffffffffffffffffffffffffffffffffff9092168252519081900360200190f35b6100fe6004803603602081101561018a57600080fd5b503573ffffffffffffffffffffffffffffffffffffffff166108c4565b6100fe600480360360208110156101bd57600080fd5b503573ffffffffffffffffffffffffffffffffffffffff166109f8565b60035473ffffffffffffffffffffffffffffffffffffffff163314610246576040805162461bcd60e51b815260206004820152600e60248201527f494e56414c49445f53454e444552000000000000000000000000000000000000604482015290519081900360640190fd5b60015473ffffffffffffffffffffffffffffffffffffffff16828260008161026a57fe5b9050602002013573ffffffffffffffffffffffffffffffffffffffff1673ffffffffffffffffffffffffffffffffffffffff16146102ef576040805162461bcd60e51b815260206004820152600c60248201527f494e56414c49445f504154480000000000000000000000000000000000000000604482015290519081900360640190fd5b6002546003546040517f38ed1739000000000000000000000000000000000000000000000000000000008152600481018781526024820187905273ffffffffffffffffffffffffffffffffffffffff92831660648301819052426084840181905260a06044850190815260a4850188905294909516946338ed1739948a948a948a948a949093909260c401866020870280828437600081840152601f19601f820116905080830192505050975050505050505050600060405180830381600087803b1580156103bd57600080fd5b505af11580156103d1573d6000803e3d6000fd5b505050506040513d6000823e601f3d9081017fffffffffffffffffffffffffffffffffffffffffffffffffffffffffffffffe0168201604052602081101561041857600080fd5b810190808051604051939291908464010000000082111561043857600080fd5b90830190602082018581111561044d57600080fd5b825186602082028301116401000000008211171561046a57600080fd5b82525081516020918201928201910280838360005b8381101561049757818101518382015260200161047f565b505050509050016040525050505050505050565b6104b3610b65565b73ffffffffffffffffffffffffffffffffffffffff166104d16108a8565b73ffffffffffffffffffffffffffffffffffffffff1614610539576040805162461bcd60e51b815260206004820181905260248201527f4f776e61626c653a2063616c6c6572206973206e6f7420746865206f776e6572604482015290519081900360640190fd5b73ffffffffffffffffffffffffffffffffffffffff81166105a1576040805162461bcd60e51b815260206004820152600f60248201527f494e56414c49445f414444524553530000000000000000000000000000000000604482015290519081900360640190fd5b73ffffffffffffffffffffffffffffffffffffffff811630141561060c576040805162461bcd60e51b815260206004820152600f60248201527f494e56414c49445f414444524553530000000000000000000000000000000000604482015290519081900360640190fd5b600380547fffffffffffffffffffffffff00000000000000000000000000000000000000001673ffffffffffffffffffffffffffffffffffffffff92909216919091179055565b61065b610b65565b73ffffffffffffffffffffffffffffffffffffffff166106796108a8565b73ffffffffffffffffffffffffffffffffffffffff16146106e1576040805162461bcd60e51b815260206004820181905260248201527f4f776e61626c653a2063616c6c6572206973206e6f7420746865206f776e6572604482015290519081900360640190fd5b6000805460405173ffffffffffffffffffffffffffffffffffffffff909116907f8be0079c531659141344cd1fd0a4f28419497f9722a3daafe3b4186f6b6457e0908390a3600080547fffffffffffffffffffffffff0000000000000000000000000000000000000000169055565b610758610b65565b73ffffffffffffffffffffffffffffffffffffffff166107766108a8565b73ffffffffffffffffffffffffffffffffffffffff16146107de576040805162461bcd60e51b815260206004820181905260248201527f4f776e61626c653a2063616c6c6572206973206e6f7420746865206f776e6572604482015290519081900360640190fd5b6108a66107e96108a8565b600154604080517f70a08231000000000000000000000000000000000000000000000000000000008152306004820152905173ffffffffffffffffffffffffffffffffffffffff909216916370a0823191602480820192602092909190829003018186803b15801561085a57600080fd5b505afa15801561086e573d6000803e3d6000fd5b505050506040513d602081101561088457600080fd5b505160015473ffffffffffffffffffffffffffffffffffffffff169190610b69565b565b60005473ffffffffffffffffffffffffffffffffffffffff1690565b60015473ffffffffffffffffffffffffffffffffffffffff82811691161415610934576040805162461bcd60e51b815260206004820152600d60248201527f494e56414c49445f544f4b454e00000000000000000000000000000000000000604482015290519081900360640190fd5b6109f561093f6108a8565b604080517f70a08231000000000000000000000000000000000000000000000000000000008152306004820152905173ffffffffffffffffffffffffffffffffffffffff8516916370a08231916024808301926020929190829003018186803b1580156109ab57600080fd5b505afa1580156109bf573d6000803e3d6000fd5b505050506040513d60208110156109d557600080fd5b505173ffffffffffffffffffffffffffffffffffffffff84169190610b69565b50565b610a00610b65565b73ffffffffffffffffffffffffffffffffffffffff16610a1e6108a8565b73ffffffffffffffffffffffffffffffffffffffff1614610a86576040805162461bcd60e51b815260206004820181905260248201527f4f776e61626c653a2063616c6c6572206973206e6f7420746865206f776e6572604482015290519081900360640190fd5b73ffffffffffffffffffffffffffffffffffffffff8116610ad85760405162461bcd60e51b8152600401808060200182810382526026815260200180610f046026913960400191505060405180910390fd5b6000805460405173ffffffffffffffffffffffffffffffffffffffff808516939216917f8be0079c531659141344cd1fd0a4f28419497f9722a3daafe3b4186f6b6457e091a3600080547fffffffffffffffffffffffff00000000000000000000000000000000000000001673ffffffffffffffffffffffffffffffffffffffff92909216919091179055565b3390565b6040805173ffffffffffffffffffffffffffffffffffffffff8416602482015260448082018490528251808303909101815260649091019091526020810180517bffffffffffffffffffffffffffffffffffffffffffffffffffffffff167fa9059cbb00000000000000000000000000000000000000000000000000000000179052610bf6908490610bfb565b505050565b6060610c5d826040518060400160405280602081526020017f5361666545524332303a206c6f772d6c6576656c2063616c6c206661696c65648152508573ffffffffffffffffffffffffffffffffffffffff16610cb99092919063ffffffff16565b805190915015610bf657808060200190516020811015610c7c57600080fd5b5051610bf65760405162461bcd60e51b815260040180806020018281038252602a815260200180610f50602a913960400191505060405180910390fd5b6060610cc88484600085610cd2565b90505b9392505050565b606082471015610d135760405162461bcd60e51b8152600401808060200182810382526026815260200180610f2a6026913960400191505060405180910390fd5b610d1c85610e59565b610d6d576040805162461bcd60e51b815260206004820152601d60248201527f416464726573733a2063616c6c20746f206e6f6e2d636f6e7472616374000000604482015290519081900360640190fd5b600060608673ffffffffffffffffffffffffffffffffffffffff1685876040518082805190602001908083835b60208310610dd757805182527fffffffffffffffffffffffffffffffffffffffffffffffffffffffffffffffe09092019160209182019101610d9a565b6001836020036101000a03801982511681845116808217855250505050505090500191505060006040518083038185875af1925050503d8060008114610e39576040519150601f19603f3d011682016040523d82523d6000602084013e610e3e565b606091505b5091509150610e4e828286610e5f565b979650505050505050565b3b151590565b60608315610e6e575081610ccb565b825115610e7e5782518084602001fd5b8160405162461bcd60e51b81526004018080602001828103825283818151815260200191508051906020019080838360005b83811015610ec8578181015183820152602001610eb0565b50505050905090810190601f168015610ef55780820380516001836020036101000a031916815260200191505b509250505060405180910390fdfe4f776e61626c653a206e6577206f776e657220697320746865207a65726f2061646472657373416464726573733a20696e73756666696369656e742062616c616e636520666f722063616c6c5361666545524332303a204552433230206f7065726174696f6e20646964206e6f742073756363656564a26469706673582212203cac8b419f60ceb81851e95e606d8991b028eab3d6125c9f3f0b28116c2e230164736f6c634300060c0033",
  "devdoc": {
    "kind": "dev",
    "methods": {
      "owner()": {
        "details": "Returns the address of the current owner."
      },
      "renounceOwnership()": {
        "details": "Leaves the contract without owner. It will not be possible to call `onlyOwner` functions anymore. Can only be called by the current owner. NOTE: Renouncing ownership will leave the contract without an owner, thereby removing any functionality that is only available to the owner."
      },
      "transferOwnership(address)": {
        "details": "Transfers ownership of the contract to a new account (`newOwner`). Can only be called by the current owner."
      }
    },
    "version": 1
  },
  "userdoc": {
    "kind": "user",
    "methods": {},
    "version": 1
  },
  "storageLayout": {
    "storage": [
      {
        "astId": 7,
        "contract": "contracts/fatex/SimpleSeller.sol:SimpleSeller",
        "label": "_owner",
        "offset": 0,
        "slot": "0",
        "type": "t_address"
      },
      {
        "astId": 8996,
        "contract": "contracts/fatex/SimpleSeller.sol:SimpleSeller",
        "label": "fate",
        "offset": 0,
        "slot": "1",
        "type": "t_contract(IERC20)1045"
      },
      {
        "astId": 8998,
        "contract": "contracts/fatex/SimpleSeller.sol:SimpleSeller",
        "label": "router",
        "offset": 0,
        "slot": "2",
        "type": "t_contract(UniswapV2Router02)16016"
      },
      {
        "astId": 9000,
        "contract": "contracts/fatex/SimpleSeller.sol:SimpleSeller",
        "label": "beneficiary",
        "offset": 0,
        "slot": "3",
        "type": "t_address"
      }
    ],
    "types": {
      "t_address": {
        "encoding": "inplace",
        "label": "address",
        "numberOfBytes": "20"
      },
      "t_contract(IERC20)1045": {
        "encoding": "inplace",
        "label": "contract IERC20",
        "numberOfBytes": "20"
      },
      "t_contract(UniswapV2Router02)16016": {
        "encoding": "inplace",
        "label": "contract UniswapV2Router02",
        "numberOfBytes": "20"
      }
    }
  }
}