{
  "address": "0xFD266a3D4DA9d185A0491f71cE61C5a22014d874",
  "addresses": [
    "0xFe2976Fc317667743d72D232DCEdd4E250170f1B",
    "0x45caFF15EEBe2D5Bd5569fa3878953d29376bb34",
    "0xcd9C194E47862CEDfC47bd6EDe9ba92EAb3d8B44",
    "0x5828930EF8e1Dc22360785c330aBe62BDa4B67E6",
    "0x7578D3a22E77f9CFBd8dbfB827c26C93DbCaBcF6",
    "0xe5bA0b2f098cB2f2efA986bF605Bd6DBc8acD7D6",
    "0x0beC09f73EBa239B9bDB0e9f6363373bB30686F1",
    "0xFD266a3D4DA9d185A0491f71cE61C5a22014d874"
  ],
  "abi": [
    {
      "inputs": [
        {
          "internalType": "address",
          "name": "_beneficiary",
          "type": "address"
        },
        {
          "internalType": "uint256",
          "name": "_startTimestamp",
          "type": "uint256"
        },
        {
          "internalType": "uint256",
          "name": "_cliffDurationInSeconds",
          "type": "uint256"
        },
        {
          "internalType": "uint256",
          "name": "_durationInSeconds",
          "type": "uint256"
        },
        {
          "internalType": "bool",
          "name": "_revocable",
          "type": "bool"
        }
      ],
      "stateMutability": "nonpayable",
      "type": "constructor"
    },
    {
      "anonymous": false,
      "inputs": [
        {
          "indexed": false,
          "internalType": "address",
          "name": "beneficary",
          "type": "address"
        }
      ],
      "name": "BeneficiarySet",
      "type": "event"
    },
    {
      "anonymous": false,
      "inputs": [
        {
          "indexed": true,
          "internalType": "address",
          "name": "previousOwner",
          "type": "address"
        },
        {
          "indexed": true,
          "internalType": "address",
          "name": "newOwner",
          "type": "address"
        }
      ],
      "name": "OwnershipTransferred",
      "type": "event"
    },
    {
      "anonymous": false,
      "inputs": [
        {
          "indexed": false,
          "internalType": "uint256",
          "name": "amount",
          "type": "uint256"
        }
      ],
      "name": "Released",
      "type": "event"
    },
    {
      "anonymous": false,
      "inputs": [],
      "name": "Revoked",
      "type": "event"
    },
    {
      "inputs": [],
      "name": "beneficiary",
      "outputs": [
        {
          "internalType": "address",
          "name": "",
          "type": "address"
        }
      ],
      "stateMutability": "view",
      "type": "function"
    },
    {
      "inputs": [],
      "name": "cliff",
      "outputs": [
        {
          "internalType": "uint256",
          "name": "",
          "type": "uint256"
        }
      ],
      "stateMutability": "view",
      "type": "function"
    },
    {
      "inputs": [],
      "name": "duration",
      "outputs": [
        {
          "internalType": "uint256",
          "name": "",
          "type": "uint256"
        }
      ],
      "stateMutability": "view",
      "type": "function"
    },
    {
      "inputs": [],
      "name": "owner",
      "outputs": [
        {
          "internalType": "address",
          "name": "",
          "type": "address"
        }
      ],
      "stateMutability": "view",
      "type": "function"
    },
    {
      "inputs": [
        {
          "internalType": "contract IERC20",
          "name": "_token",
          "type": "address"
        }
      ],
      "name": "releasableAmount",
      "outputs": [
        {
          "internalType": "uint256",
          "name": "",
          "type": "uint256"
        }
      ],
      "stateMutability": "view",
      "type": "function"
    },
    {
      "inputs": [
        {
          "internalType": "contract IERC20",
          "name": "_token",
          "type": "address"
        }
      ],
      "name": "release",
      "outputs": [],
      "stateMutability": "nonpayable",
      "type": "function"
    },
    {
      "inputs": [
        {
          "internalType": "address",
          "name": "",
          "type": "address"
        }
      ],
      "name": "released",
      "outputs": [
        {
          "internalType": "uint256",
          "name": "",
          "type": "uint256"
        }
      ],
      "stateMutability": "view",
      "type": "function"
    },
    {
      "inputs": [],
      "name": "renounceOwnership",
      "outputs": [],
      "stateMutability": "nonpayable",
      "type": "function"
    },
    {
      "inputs": [],
      "name": "revocable",
      "outputs": [
        {
          "internalType": "bool",
          "name": "",
          "type": "bool"
        }
      ],
      "stateMutability": "view",
      "type": "function"
    },
    {
      "inputs": [
        {
          "internalType": "contract IERC20",
          "name": "_token",
          "type": "address"
        }
      ],
      "name": "revoke",
      "outputs": [],
      "stateMutability": "nonpayable",
      "type": "function"
    },
    {
      "inputs": [
        {
          "internalType": "address",
          "name": "",
          "type": "address"
        }
      ],
      "name": "revoked",
      "outputs": [
        {
          "internalType": "bool",
          "name": "",
          "type": "bool"
        }
      ],
      "stateMutability": "view",
      "type": "function"
    },
    {
      "inputs": [
        {
          "internalType": "address",
          "name": "_beneficiary",
          "type": "address"
        }
      ],
      "name": "setBeneficiary",
      "outputs": [],
      "stateMutability": "nonpayable",
      "type": "function"
    },
    {
      "inputs": [],
      "name": "start",
      "outputs": [
        {
          "internalType": "uint256",
          "name": "",
          "type": "uint256"
        }
      ],
      "stateMutability": "view",
      "type": "function"
    },
    {
      "inputs": [
        {
          "internalType": "address",
          "name": "newOwner",
          "type": "address"
        }
      ],
      "name": "transferOwnership",
      "outputs": [],
      "stateMutability": "nonpayable",
      "type": "function"
    },
    {
      "inputs": [
        {
          "internalType": "contract IERC20",
          "name": "_token",
          "type": "address"
        }
      ],
      "name": "vestedAmount",
      "outputs": [
        {
          "internalType": "uint256",
          "name": "",
          "type": "uint256"
        }
      ],
      "stateMutability": "view",
      "type": "function"
    }
  ],
  "transactionHash": "0x8c1a05acd96e0a4effd36768e3da84a2f521fb2ee43be1a1c775d584d4cf92f0",
  "args": [
    "0x4853365bc81f8270d902076892e13f27c27e7266",
    1630007129,
    "0",
    "0",
    true
  ],
  "solcInputHash": "067b054adfd077c1fce1552f5f448c93",
  "bytecode": "0x608060405234801561001057600080fd5b50604051611517380380611517833981810160405260a081101561003357600080fd5b50805160208201516040830151606084015160809094015192939192909190600061005c610157565b600080546001600160a01b0319166001600160a01b0383169081178255604051929350917f8be0079c531659141344cd1fd0a4f28419497f9722a3daafe3b4186f6b6457e0908290a3506001600160a01b0385166100b957600080fd5b818311156100c657600080fd5b600180546001600160a01b0319166001600160a01b0387161790556005805460ff19168215151790556004829055610109848461015b602090811b610d4017901c565b6002556003849055604080516001600160a01b038716815290517f04d55a8be181fb8d75b76f2d48aa0b2ee40f47e53d6e61763eeeec46feea8a249181900360200190a150505050506101bc565b3390565b6000828201838110156101b5576040805162461bcd60e51b815260206004820152601b60248201527f536166654d6174683a206164646974696f6e206f766572666c6f770000000000604482015290519081900360640190fd5b9392505050565b61134c806101cb6000396000f3fe608060405234801561001057600080fd5b50600436106100f55760003560e01c8063715018a6116100975780639852595c116100665780639852595c1461027a578063be9a6555146102ad578063f2fde38b146102b5578063fa01dc06146102e8576100f5565b8063715018a61461021b57806374a8f10314610223578063872a7810146102565780638da5cb5b14610272576100f5565b806319165587116100d3578063191655871461014f5780631c31f71014610184578063384711cc146101b757806338af3eed146101ea576100f5565b80630fb5a6b4146100fa57806313d033c0146101145780631726cbc81461011c575b600080fd5b61010261031b565b60408051918252519081900360200190f35b610102610321565b6101026004803603602081101561013257600080fd5b503573ffffffffffffffffffffffffffffffffffffffff16610327565b6101826004803603602081101561016557600080fd5b503573ffffffffffffffffffffffffffffffffffffffff16610368565b005b6101826004803603602081101561019a57600080fd5b503573ffffffffffffffffffffffffffffffffffffffff16610513565b610102600480360360208110156101cd57600080fd5b503573ffffffffffffffffffffffffffffffffffffffff1661064a565b6101f26107b0565b6040805173ffffffffffffffffffffffffffffffffffffffff9092168252519081900360200190f35b6101826107cc565b6101826004803603602081101561023957600080fd5b503573ffffffffffffffffffffffffffffffffffffffff166108c9565b61025e610b81565b604080519115158252519081900360200190f35b6101f2610b8a565b6101026004803603602081101561029057600080fd5b503573ffffffffffffffffffffffffffffffffffffffff16610ba6565b610102610bb8565b610182600480360360208110156102cb57600080fd5b503573ffffffffffffffffffffffffffffffffffffffff16610bbe565b61025e600480360360208110156102fe57600080fd5b503573ffffffffffffffffffffffffffffffffffffffff16610d2b565b60045481565b60025481565b73ffffffffffffffffffffffffffffffffffffffff81166000908152600660205260408120546103609061035a8461064a565b90610da3565b90505b919050565b610370610b8a565b73ffffffffffffffffffffffffffffffffffffffff163373ffffffffffffffffffffffffffffffffffffffff1614806103c0575060015473ffffffffffffffffffffffffffffffffffffffff1633145b610411576040805162461bcd60e51b815260206004820152601960248201527f546f6b656e4c6f636b75703a20554e415554484f52495a454400000000000000604482015290519081900360640190fd5b600061041c82610327565b905060008111610473576040805162461bcd60e51b815260206004820152601f60248201527f546f6b656e4c6f636b75703a204e4f5448494e475f544f5f52454c4541534500604482015290519081900360640190fd5b73ffffffffffffffffffffffffffffffffffffffff82166000908152600660205260409020546104a39082610d40565b73ffffffffffffffffffffffffffffffffffffffff8084166000818152600660205260409020929092556001546104dc92911683610e00565b6040805182815290517ffb81f9b30d73d830c3544b34d827c08142579ee75710b490bab0b3995468c5659181900360200190a15050565b60015473ffffffffffffffffffffffffffffffffffffffff16331461057f576040805162461bcd60e51b815260206004820152601a60248201527f546f6b656e4c6f636b75703a3a20554e415554484f52495a4544000000000000604482015290519081900360640190fd5b73ffffffffffffffffffffffffffffffffffffffff81166105d15760405162461bcd60e51b81526004018080602001828103825260218152602001806112cc6021913960400191505060405180910390fd5b6001805473ffffffffffffffffffffffffffffffffffffffff83167fffffffffffffffffffffffff0000000000000000000000000000000000000000909116811790915560408051918252517f04d55a8be181fb8d75b76f2d48aa0b2ee40f47e53d6e61763eeeec46feea8a249181900360200190a150565b6000808273ffffffffffffffffffffffffffffffffffffffff166370a08231306040518263ffffffff1660e01b8152600401808273ffffffffffffffffffffffffffffffffffffffff16815260200191505060206040518083038186803b1580156106b457600080fd5b505afa1580156106c8573d6000803e3d6000fd5b505050506040513d60208110156106de57600080fd5b505173ffffffffffffffffffffffffffffffffffffffff841660009081526006602052604081205491925090610715908390610d40565b905060025442101561072c57600092505050610363565b60045460035461073b91610d40565b4210158061076e575073ffffffffffffffffffffffffffffffffffffffff841660009081526007602052604090205460ff165b1561077c5791506103639050565b6107a76004546107a161079a60035442610da390919063ffffffff16565b8490610e92565b90610eeb565b92505050610363565b60015473ffffffffffffffffffffffffffffffffffffffff1681565b6107d4610f52565b73ffffffffffffffffffffffffffffffffffffffff166107f2610b8a565b73ffffffffffffffffffffffffffffffffffffffff161461085a576040805162461bcd60e51b815260206004820181905260248201527f4f776e61626c653a2063616c6c6572206973206e6f7420746865206f776e6572604482015290519081900360640190fd5b6000805460405173ffffffffffffffffffffffffffffffffffffffff909116907f8be0079c531659141344cd1fd0a4f28419497f9722a3daafe3b4186f6b6457e0908390a3600080547fffffffffffffffffffffffff0000000000000000000000000000000000000000169055565b6108d1610f52565b73ffffffffffffffffffffffffffffffffffffffff166108ef610b8a565b73ffffffffffffffffffffffffffffffffffffffff1614610957576040805162461bcd60e51b815260206004820181905260248201527f4f776e61626c653a2063616c6c6572206973206e6f7420746865206f776e6572604482015290519081900360640190fd5b60055460ff166109ae576040805162461bcd60e51b815260206004820152601a60248201527f546f6b656e4c6f636b75703a204e4f545f5245564f4341424c45000000000000604482015290519081900360640190fd5b73ffffffffffffffffffffffffffffffffffffffff811660009081526007602052604090205460ff1615610a29576040805162461bcd60e51b815260206004820152601a60248201527f546f6b656e4c6f636b75703a204e4f545f5245564f4341424c45000000000000604482015290519081900360640190fd5b60008173ffffffffffffffffffffffffffffffffffffffff166370a08231306040518263ffffffff1660e01b8152600401808273ffffffffffffffffffffffffffffffffffffffff16815260200191505060206040518083038186803b158015610a9257600080fd5b505afa158015610aa6573d6000803e3d6000fd5b505050506040513d6020811015610abc57600080fd5b505190506000610acb83610327565b90506000610ad98383610da3565b73ffffffffffffffffffffffffffffffffffffffff8516600090815260076020526040902080547fffffffffffffffffffffffffffffffffffffffffffffffffffffffffffffff001660011790559050610b52610b34610b8a565b73ffffffffffffffffffffffffffffffffffffffff86169083610e00565b6040517f44825a4b2df8acb19ce4e1afba9aa850c8b65cdb7942e2078f27d0b0960efee690600090a150505050565b60055460ff1681565b60005473ffffffffffffffffffffffffffffffffffffffff1690565b60066020526000908152604090205481565b60035481565b610bc6610f52565b73ffffffffffffffffffffffffffffffffffffffff16610be4610b8a565b73ffffffffffffffffffffffffffffffffffffffff1614610c4c576040805162461bcd60e51b815260206004820181905260248201527f4f776e61626c653a2063616c6c6572206973206e6f7420746865206f776e6572604482015290519081900360640190fd5b73ffffffffffffffffffffffffffffffffffffffff8116610c9e5760405162461bcd60e51b815260040180806020018281038252602681526020018061125f6026913960400191505060405180910390fd5b6000805460405173ffffffffffffffffffffffffffffffffffffffff808516939216917f8be0079c531659141344cd1fd0a4f28419497f9722a3daafe3b4186f6b6457e091a3600080547fffffffffffffffffffffffff00000000000000000000000000000000000000001673ffffffffffffffffffffffffffffffffffffffff92909216919091179055565b60076020526000908152604090205460ff1681565b600082820183811015610d9a576040805162461bcd60e51b815260206004820152601b60248201527f536166654d6174683a206164646974696f6e206f766572666c6f770000000000604482015290519081900360640190fd5b90505b92915050565b600082821115610dfa576040805162461bcd60e51b815260206004820152601e60248201527f536166654d6174683a207375627472616374696f6e206f766572666c6f770000604482015290519081900360640190fd5b50900390565b6040805173ffffffffffffffffffffffffffffffffffffffff8416602482015260448082018490528251808303909101815260649091019091526020810180517bffffffffffffffffffffffffffffffffffffffffffffffffffffffff167fa9059cbb00000000000000000000000000000000000000000000000000000000179052610e8d908490610f56565b505050565b600082610ea157506000610d9d565b82820282848281610eae57fe5b0414610d9a5760405162461bcd60e51b81526004018080602001828103825260218152602001806112ab6021913960400191505060405180910390fd5b6000808211610f41576040805162461bcd60e51b815260206004820152601a60248201527f536166654d6174683a206469766973696f6e206279207a65726f000000000000604482015290519081900360640190fd5b818381610f4a57fe5b049392505050565b3390565b6060610fb8826040518060400160405280602081526020017f5361666545524332303a206c6f772d6c6576656c2063616c6c206661696c65648152508573ffffffffffffffffffffffffffffffffffffffff166110149092919063ffffffff16565b805190915015610e8d57808060200190516020811015610fd757600080fd5b5051610e8d5760405162461bcd60e51b815260040180806020018281038252602a8152602001806112ed602a913960400191505060405180910390fd5b6060611023848460008561102d565b90505b9392505050565b60608247101561106e5760405162461bcd60e51b81526004018080602001828103825260268152602001806112856026913960400191505060405180910390fd5b611077856111b4565b6110c8576040805162461bcd60e51b815260206004820152601d60248201527f416464726573733a2063616c6c20746f206e6f6e2d636f6e7472616374000000604482015290519081900360640190fd5b600060608673ffffffffffffffffffffffffffffffffffffffff1685876040518082805190602001908083835b6020831061113257805182527fffffffffffffffffffffffffffffffffffffffffffffffffffffffffffffffe090920191602091820191016110f5565b6001836020036101000a03801982511681845116808217855250505050505090500191505060006040518083038185875af1925050503d8060008114611194576040519150601f19603f3d011682016040523d82523d6000602084013e611199565b606091505b50915091506111a98282866111ba565b979650505050505050565b3b151590565b606083156111c9575081611026565b8251156111d95782518084602001fd5b8160405162461bcd60e51b81526004018080602001828103825283818151815260200191508051906020019080838360005b8381101561122357818101518382015260200161120b565b50505050905090810190601f1680156112505780820380516001836020036101000a031916815260200191505b509250505060405180910390fdfe4f776e61626c653a206e6577206f776e657220697320746865207a65726f2061646472657373416464726573733a20696e73756666696369656e742062616c616e636520666f722063616c6c536166654d6174683a206d756c7469706c69636174696f6e206f766572666c6f77546f6b656e4c6f636b75703a3a20494e56414c49445f42454e45464943494152595361666545524332303a204552433230206f7065726174696f6e20646964206e6f742073756363656564a26469706673582212207ac9270eddae13a77ce83c4456dfcaea370e06432c3d7cd903890c016570c4c064736f6c634300060c0033",
  "devdoc": {
    "kind": "dev",
    "methods": {
      "constructor": {
        "details": "Creates a vesting contract that vests its balance of any ERC20 token to the _beneficiary, gradually in a linear fashion until _start + _duration. By then all of the balance will have vested.",
        "params": {
          "_beneficiary": "address of the beneficiary to whom vested tokens are transferred",
          "_cliffDurationInSeconds": "duration in seconds of the cliff in which tokens will begin to vest",
          "_durationInSeconds": "duration in seconds of the period in which the tokens will vest",
          "_revocable": "whether the vesting is revocable or not",
          "_startTimestamp": "the time (as Unix time) at which point vesting starts"
        }
      },
      "owner()": {
        "details": "Returns the address of the current owner."
      },
      "releasableAmount(address)": {
        "details": "Calculates the amount that has already vested but hasn't been released yet.",
        "params": {
          "_token": "ERC20 token which is being vested"
        }
      },
      "release(address)": {
        "params": {
          "_token": "ERC20 token which is being vested"
        }
      },
      "renounceOwnership()": {
        "details": "Leaves the contract without owner. It will not be possible to call `onlyOwner` functions anymore. Can only be called by the current owner. NOTE: Renouncing ownership will leave the contract without an owner, thereby removing any functionality that is only available to the owner."
      },
      "revoke(address)": {
        "params": {
          "_token": "ERC20 token which is being vested"
        }
      },
      "transferOwnership(address)": {
        "details": "Transfers ownership of the contract to a new account (`newOwner`). Can only be called by the current owner."
      },
      "vestedAmount(address)": {
        "details": "Calculates the amount that has already vested.",
        "params": {
          "_token": "ERC20 token which is being vested"
        }
      }
    },
    "version": 1
  },
  "userdoc": {
    "kind": "user",
    "methods": {
      "release(address)": {
        "notice": "Transfers vested tokens to beneficiary."
      },
      "revoke(address)": {
        "notice": "Allows the owner to revoke the vesting. Tokens already vested remain in the contract, the rest are returned to the owner."
      }
    },
    "notice": "This was copied from OpenZeppelin's TokenLockup contract to work for solidity version 5.0.",
    "version": 1
  },
  "storageLayout": {
    "storage": [
      {
        "astId": 7,
        "contract": "contracts/fatex/TokenLockup.sol:TokenLockup",
        "label": "_owner",
        "offset": 0,
        "slot": "0",
        "type": "t_address"
      },
      {
        "astId": 9186,
        "contract": "contracts/fatex/TokenLockup.sol:TokenLockup",
        "label": "beneficiary",
        "offset": 0,
        "slot": "1",
        "type": "t_address"
      },
      {
        "astId": 9188,
        "contract": "contracts/fatex/TokenLockup.sol:TokenLockup",
        "label": "cliff",
        "offset": 0,
        "slot": "2",
        "type": "t_uint256"
      },
      {
        "astId": 9190,
        "contract": "contracts/fatex/TokenLockup.sol:TokenLockup",
        "label": "start",
        "offset": 0,
        "slot": "3",
        "type": "t_uint256"
      },
      {
        "astId": 9192,
        "contract": "contracts/fatex/TokenLockup.sol:TokenLockup",
        "label": "duration",
        "offset": 0,
        "slot": "4",
        "type": "t_uint256"
      },
      {
        "astId": 9194,
        "contract": "contracts/fatex/TokenLockup.sol:TokenLockup",
        "label": "revocable",
        "offset": 0,
        "slot": "5",
        "type": "t_bool"
      },
      {
        "astId": 9198,
        "contract": "contracts/fatex/TokenLockup.sol:TokenLockup",
        "label": "released",
        "offset": 0,
        "slot": "6",
        "type": "t_mapping(t_address,t_uint256)"
      },
      {
        "astId": 9202,
        "contract": "contracts/fatex/TokenLockup.sol:TokenLockup",
        "label": "revoked",
        "offset": 0,
        "slot": "7",
        "type": "t_mapping(t_address,t_bool)"
      }
    ],
    "types": {
      "t_address": {
        "encoding": "inplace",
        "label": "address",
        "numberOfBytes": "20"
      },
      "t_bool": {
        "encoding": "inplace",
        "label": "bool",
        "numberOfBytes": "1"
      },
      "t_mapping(t_address,t_bool)": {
        "encoding": "mapping",
        "key": "t_address",
        "label": "mapping(address => bool)",
        "numberOfBytes": "32",
        "value": "t_bool"
      },
      "t_mapping(t_address,t_uint256)": {
        "encoding": "mapping",
        "key": "t_address",
        "label": "mapping(address => uint256)",
        "numberOfBytes": "32",
        "value": "t_uint256"
      },
      "t_uint256": {
        "encoding": "inplace",
        "label": "uint256",
        "numberOfBytes": "32"
      }
    }
  }
}